:1000000000800020BD010000912E0000492E00005C
:10001000492E0000492E0000492E0000492E000004
:10002000492E0000492E0000492E0000912E0000AC
:10003000912E0000492E000095330000E5350000A8
:10004000912E0000912E0000912E0000912E0000B4
:10005000912E0000912E0000912E0000912E0000A4
:10006000912E0000912E0000912E0000912E000094
:10007000912E0000912E0000912E0000912E000084
:10008000912E0000912E0000912E0000912E000074
:10009000912E0000912E0000912E0000912E000064
:1000A000912E0000912E0000912E0000912E000054
:1000B000912E0000912E0000912E0000912E000044
:1000C000912E0000912E0000912E0000912E000034
:1000D000912E0000912E0000912E0000912E000024
:1000E000912E0000912E0000912E0000912E000014
:1000F000912E0000F52E0000912E0000213000000E
:10010000912E00004D310000912E0000912E000034
:10011000912E0000912E0000912E0000912E0000E3
:10012000912E0000912E0000912E0000912E0000D3
:10013000912E0000912E0000912E0000912E0000C3
:10014000912E0000912E0000912E0000912E0000B3
:10015000912E0000912E0000912E0000912E0000A3
:10016000912E0000A9200000912E0000912E000089
:10017000912E0000912E0000912E0000912E000083
:10018000912E0000912E0000912E0000912E000073
:10019000912E0000912E0000912E0000912E000063
:1001A000912E0000912E0000912E0000912E000053
:1001B000912E0000912E0000912E0000564B4CF223
:1001C000205210B51A804DF628121A8000BF00BFC9
:1001D00002F062FE514B4FF010621A60504A9A6072
:1001E000504ADA60504A136813F4807304D14F49BF
:1001F0000B604FF4A85313604D4B1A78110703D5C9
:100200001A7842F008021A704A4B4B492A221A7097
:100210004A4A4B4B8B4204D252F8040F43F8040B6A
:10022000F8E7484B484900228B4202D243F8042B9E
:10023000FAE74649464A002352F8230041F82300D2
:1002400001336F2BF8D1434B434A802103F8011B44
:100250009342FBD1414B3D4A1A60414B8A221A70AE
:10026000A3F5805324225A70A0221A709A7992071B
:10027000FCD59A79D406FCD43A4A937903F00C035E
:10028000082B384BF9D103221A7146225A719A79F8
:100290009006FCD5334A9179324B4906FBD5324A58
:1002A0004FF0827111600921516020221A709A79F1
:1002B00002F00C020C2AFAD12C4B2D4A1A602D4B5D
:1002C0002D4A1A6000225A60072243F8042C2B4A58
:1002D000C3F80C2D62B601F0CBFC144B1B68DA0797
:1002E00005D5274801F0B2FC264B274A1A60274B58
:1002F0001B785B0609D5234C234B22689A4204D114
:100300001F4801F0A3FC0023236004F0AFF902F0C2
:10031000C9FD02F007FDFEE70E20054030800440D5
:10032000823F04000100002B10D0034014D0034092
:1003300002D0074000E007401490FF1F1C5200004D
:100340002087FF1F1890FF1F10F6FF1F0082FF1F5E
:100350000000000000E400E05FE400E008ED00E0E1
:1003600000500640004006404480044004800440A1
:10037000C010050014E000E0BFD401000000202000
:10038000E94D03011CE00340A5C3945A00F0074067
:10039000FFFFFFFFFFFFFFFFFFFFFFFFFFFFFFFF6D
:1003A000FFFFFFFFFFFFFFFFFFFFFFFFFFFFFFFF5D
:1003B000FFFFFFFFFFFFFFFFFFFFFFFFFFFFFFFF4D
:1003C000FFFFFFFFFFFFFFFFFFFFFFFFFFFFFFFF3D
:1003D000FFFFFFFFFFFFFFFFFFFFFFFFFFFFFFFF2D
:1003E000FFFFFFFFFFFFFFFFFFFFFFFFFFFFFFFF1D
:1003F000FFFFFFFFFFFFFFFFFFFFFFFFFFFFFFFF0D
:10040000FFFFFFFFFFFFFFFFFFFFFFFFDEF9FFFF23
:1004100010B5054C237833B9044B13B10448AFF33E
:1004200000800123237010BD1890FF1F0000000002
:1004300020520000084B10B51BB108490848AFF323
:1004400000800848036803B910BD074B002BFBD0A0
:10045000BDE81040184700BF000000001C90FF1FBF
:10046000205200001490FF1F00000000F8B50F207C
:1004700001F06EFB0446102001F06AFB04441120D9
:1004800001F066FB0444122001F062FB04441320D7
:1004900001F05EFB204402F04DFC0E480E4C01F0D2
:1004A0004FF90C4801F05EF904F50C6500260027B1
:1004B0004FF434614FF4107002F042FC03F01AFA6A
:1004C0000023C4E90201C4E90467A361E034AC423B
:1004D000EED1F8BDFCC5FF1F3890FF1F2DE9F04F8E
:1004E000054685B0C600DB4C01F016FD731B04EB1E
:1004F0004313D3E904890290002200234046494671
:1005000003F0E4FC0022D44B002800F07182404646
:10051000494603F0A3F803F0EDFC0746002840F03D
:10052000818201F0F9FCCD4B039318600221002079
:1005300002F006FCC5EB0608002804EB48180CBFC7
:100540004FF434634FF4B463C8F818300F2001F04F
:10055000FFFA0746102001F0FBFA0744112001F0D2
:10056000F7FA0744122001F0F3FA0744132001F0D0
:10057000EFFA384402F0DEFB4FF48071002002F005
:10058000DFFB03F0E9FDC8F81C000F2001F0E0FAE2
:100590000746102001F0DCFA0744112001F0D8FAD8
:1005A0000744122001F0D4FA0744132001F0D0FAD6
:1005B000384402F0BFFB4FF48071002002F0C0FB12
:1005C00003F0CAFDC8F820000F2001F0C1FA074669
:1005D000102001F0BDFA0744112001F0B9FA0744D8
:1005E000122001F0B5FA0744132001F0B1FA3844A3
:1005F00002F0A0FB4FF48071002002F0A1FB03F099
:10060000ABFDC8F824000F2001F0A2FA0746102025
:1006100001F09EFA0744112001F09AFA07441220D3
:1006200001F096FA0744132001F092FA384402F0E0
:1006300081FB4FF48071002002F082FB03F08CFDFF
:10064000C8F82800D8E904890746C5EB060A04EB78
:100650004A1ADAF8180003F04DF942464B4603F007
:100660002BFC0022002800F0E8810023CAE90423C3
:10067000002101918846731B04EB43137848D3F89B
:1006800020907849D3F81CA0D3F824B0764A774B51
:1006900040F8289041F828A0484642F828B00021A8
:1006A00043F8287003F05EFF002800F0858248467A
:1006B0004FF07C5103F09CFC03F068FF8146002161
:1006C00050465FFA89F903F04DFF002800F06B8275
:1006D00050464FF07C5103F08BFC03F057FF8246ED
:1006E000002158465FFA8AFA03F03CFF002800F028
:1006F000C68158464FF07C5103F07AFC03F046FF68
:100700008346002138465FFA8BFB03F02BFF00285D
:1007100000F0AD814FF07C51384603F069FC03F0E6
:1007200035FFC3B25A465146484601F0F7F80199E1
:10073000DFF8209102464E4801F0B8F8731B4FEAEB
:10074000C30A0AEB080704EB431304EB8702D969D9
:10075000D16207F11602196A44F82210D3F828B0C2
:10076000596A04EB870207F12C03B8F1000FC2F8B5
:10077000841044F823B040F38B8108EB0A073D490D
:10078000584603F03DFD093709EB870740F29E53B9
:100790009845786040F3BB82A8F102035A1C0ED042
:1007A000771BFF0007EB08022B321F4454F822008E
:1007B00030490A3703F024FD04EB8707786040F2E4
:1007C0009D53984540F31C82B8F103030ED4771B68
:1007D000FF0007EB08022A321F4454F82200254983
:1007E0000A3703F00DFD04EB8707786040F29C5355
:1007F000984540F31482B8F104030ED4771BFF0030
:1008000007EB080229321F4454F8220019490A371D
:1008100003F0F6FC04EB8707786040F29B539845A1
:1008200040F30C82B8F105030ED4771BFF0007EBF1
:10083000080228321F4454F822000E490A3703F0F8
:10084000DFFC04EB8707786040F29A53984540F349
:10085000048211E03890FF1F0000E03F78AFFF1FD7
:1008600090DCFF1FF898FF1F10C6FF1F7CAFFF1F13
:10087000FCC5FF1F3333333FB8F106030ED4771B9B
:10088000FF0007EB080227321F4454F82200D74923
:100890000A3703F0B5FC04EB8707786040F2995300
:1008A000984540F3E981B8F107030ED4771BFF00A8
:1008B00007EB080226321F4454F82200CB490A37BE
:1008C00003F09EFC04EB87077860B8F5B36F40F344
:1008D000E281B8F108030ED4771BFF0007EB080292
:1008E00025321F4454F82200C0490A3703F088FC1F
:1008F00004EB87077860B8F5B36FC0F2DB81B8F11D
:1009000009030ED4771BFF0007EB080224321F44B3
:1009100054F82200B5490A3703F072FC04EB87074C
:10092000786040F29653984540F3D381B8F10A03BA
:100930000ED4771BFF0007EB080223321F4454F844
:100940002200AA490A3703F05BFC04EB87077860B2
:1009500040F29553984540F3CB81B8F10B030ED488
:10096000771BFF0007EB080222321F4454F82200D5
:100970009E490A3703F044FC04EB8707786040F295
:100980009453984540F3218101F0C6FA029BC01AA6
:1009900003F0DEFB751B964903F0E6FC6D019449FC
:1009A00003F0E2FC661902F0B7FFD6E9022303F078
:1009B00007F8D6E9042302F051FEC6E9040101F06C
:1009C000ABFA039B1B68C01A03F0C2FB884903F013
:1009D000CBFC874903F0C8FC02F09EFFD6E9022356
:1009E00002F0EEFF03F0AEFA605105B0BDE8F08F03
:1009F0004046494602F030FE03F07CFA07460028E4
:100A00003FF48FAD002200234046494603F05EFAD2
:100A100040B10022774B4046494602F01FFE03F0EA
:100A200069FA0746B7F5B46F3FF47BAD731B04EB6F
:100A30004313714A03929F6A07E6704B404649464A
:100A400003F044FA002800F06D81404600226B4B11
:100A5000494602F001FE0B4602466849002002F0BA
:100A6000FBFD03F047FA83B28046019303E64FF0A3
:100A70007C51384603F0BAFA03F088FD51E6584637
:100A80004FF07C5103F0B2FA03F080FD834638E664
:100A90005649584603F0B4FB07F10B0807F12D0344
:100AA00009EB88085149C8F8040059F8230003F0FD
:100AB000A7FB07F10C0807F12E0309EB88084B4947
:100AC000C8F8040059F8230003F09AFB07F10D0859
:100AD00007F12F0309EB88084449C8F8040059F8C6
:100AE000230003F08DFB07F10E0807F1300309EB3B
:100AF00088083E49C8F8040059F8230003F080FB39
:100B000007F10F0807F1310309EB88083749C8F8E6
:100B1000040059F8230003F073FB07F1100807F1F4
:100B2000320309EB88083149C8F8040059F823005A
:100B300003F066FB07F1110807F1330309EB88089E
:100B40002A49C8F8040059F8230003F059FB07F1BB
:100B5000120807F1340309EB88082449C8F8040097
:100B600059F8230003F04CFB07F1130807F1350394
:100B700009EB88081D49C8F8040059F8230003F060
:100B80003FFB07F1140807F1360309EB8808174902
:100B9000C8F8040059F82300153703F031FB09EBBE
:100BA00087077860F0E650464FF07C5103F01EFA5C
:100BB00003F0ECFC824693E548464FF07C5103F08D
:100BC00015FA03F0E3FC814679E5731B08EBC308D3
:100BD00008F13603054954F8230008F1150803F01D
:100BE0000FFB04EB88077860CEE600BF3333333F5A
:100BF00000007A440000E03F78AFFF1F008096407D
:100C0000731B08EBC30303F12D024A4954F8220079
:100C10000C3304EB830703F0F3FA7860D4E5731B1D
:100C200008EBC30303F12E02424954F822000D33AE
:100C300004EB830703F0E4FA7860DCE5731B08EB50
:100C4000C30303F12F023B4954F822000E3304EB97
:100C5000830703F0D5FA7860E4E5731B08EBC30360
:100C600003F13002334954F822000F3304EB8307B9
:100C700003F0C6FA7860FFE5731B08EBC30303F1CA
:100C800031022C4954F82200103304EB830703F09F
:100C9000B7FA786007E6731B08EBC30303F132026F
:100CA000244954F82200113304EB830703F0A8FA17
:100CB00078600EE6731B08EBC30303F133021D4992
:100CC00054F82200123304EB830703F099FA78609A
:100CD00015E6731B08EBC30303F13402154954F8FE
:100CE0002200133304EB830703F08AFA78601DE6D1
:100CF000731B08EBC30303F135020E4954F82200BD
:100D0000143304EB830703F07BFA786025E608EBE5
:100D10000A07584607490B3703F072FA09EB8707B1
:100D2000786039E54046494603F0E4F883B2019320
:100D30008046A0E43333333F2DE9F04F002485B0E3
:100D400020460134FFF7CAFB0A2CF9D10023D44C0A
:100D5000DFF86883D34FD44ED44D0193D4F800907C
:100D60000021484603F044F903F010FCA16D8246CF
:100D700058F8200003F03CF9D4F88410039057F899
:100D80002A0003F035F9D4F8B010029056F82A0082
:100D900003F02EF9E16A834655F82A0003F028F99A
:100DA0004FF07C5103F02CFA039A45F82A004FF0DB
:100DB0007C51104603F024FA029B48F82A004FF0B9
:100DC0007C51184603F01CFA4FF07C5147F82A007A
:100DD000584603F015FA4FF07E5146F82A0048466F
:100DE00003F006F903F0D2FBE16D824658F82000CB
:100DF00003F0FEF8D4F88810039057F82A0003F0A7
:100E0000F7F8D4F8B410029056F82A0003F0F0F87E
:100E1000216B834655F82A0003F0EAF84FF07C5125
:100E200003F0EEF9039A45F82A004FF07C51104682
:100E300003F0E6F9029B48F82A004FF07C5118466F
:100E400003F0DEF94FF07C5147F82A00584603F0D2
:100E5000D7F94FF0804146F82A00484603F0C8F819
:100E600003F094FB216E824658F8200003F0C0F88E
:100E7000D4F88C10039057F82A0003F0B9F8D4F88E
:100E8000B810029056F82A0003F0B2F8616B83465E
:100E900055F82A0003F0ACF84FF07C5103F0B0F99C
:100EA000039A45F82A004FF07C51104603F0A8F948
:100EB000029B48F82A004FF07C51184603F0A0F935
:100EC0004FF07C5147F82A00584603F099F97849C9
:100ED00046F82A00484603F08BF803F057FB019BC5
:100EE000616E8246013358F82000019303F080F8C8
:100EF000D4F89010039057F82A0003F079F8D4F84A
:100F0000BC10029056F82A0003F072F8A16B8346D9
:100F100055F82A0003F06CF84FF07C5103F070F99B
:100F2000039A45F82A004FF07C51104603F068F907
:100F3000029B48F82A004FF07C51184603F060F9F4
:100F40004FF07C5147F82A00584603F059F94FF00A
:100F5000814146F82A00484603F04AF803F016FBA0
:100F6000A16E824658F8200003F042F8D4F894109D
:100F7000039057F82A0003F03BF8D4F8C010029011
:100F800056F82A0003F034F8E16B834655F82A003E
:100F900003F02EF84FF07C5103F032F9039A45F834
:100FA0002A004FF07C51104603F02AF9029B48F8C2
:100FB0002A004FF07C51184603F022F94FF07C5183
:100FC00047F82A00584603F01BF93A4946F82A0028
:100FD000484603F00DF803F0D9FAE16E824658F85E
:100FE000200003F005F8D4F89810039057F82A0071
:100FF00002F0FEFFD4F8C410029056F82A0002F066
:10100000F7FF216C834655F82A0002F0F1FF4FF0FC
:101010007C5103F0F5F8039A45F82A004FF07C5113
:10102000104603F0EDF8029B48F82A004FF07C517F
:10103000184603F0E5F84FF07C5147F82A0058466F
:1010400003F0DEF81C4946F82A00484602F0D0FFBB
:1010500003F09CFA216F824658F8200002F0C8FF86
:101060000390D4F89C1057F82A0002F0C1FFD4F87E
:10107000C810029056F82A0002F0BAFF616C83464D
:1010800055F82A0002F0B4FF4FF07C5103F0B8F895
:10109000039A45F82A004FF07C51104610E000BF3B
:1010A0003890FF1F10C6FF1F7CAFFF1FF898FF1F6F
:1010B000000040400000A0400000C04090DCFF1F46
:1010C00003F09EF8029B48F82A004FF07C51184626
:1010D00003F096F84FF07C5147F82A00584603F089
:1010E0008FF8844946F82A00484602F081FF03F051
:1010F0004DFA616F824658F8200002F079FFD4F86B
:10110000A010039057F82A0002F072FFD4F8CC1018
:10111000029056F82A0002F06BFFA16C834655F846
:101120002A0002F065FF4FF07C5103F069F8039A42
:1011300045F82A004FF07C51104603F061F8029BFD
:1011400048F82A004FF07C51184603F059F84FF048
:101150007C5147F82A00584603F052F84FF082417C
:1011600046F82A00484602F043FF03F00FFAA16F49
:10117000824658F8200002F03BFFD4F8A4100390F8
:1011800057F82A0002F034FFD4F8D010029056F835
:101190002A0002F02DFFE16C834655F82A0002F088
:1011A00027FF4FF07C5103F02BF8039A45F82A00F3
:1011B0004FF07C51104603F023F8029B48F82A00B8
:1011C0004FF07C51184603F01BF84FF07C5147F864
:1011D0002A00584603F014F8474946F82A004846C2
:1011E00002F006FF03F0D2F9E16F824658F82000C2
:1011F00002F0FEFED4F8A810039057F82A0002F07F
:10120000F7FED4F8D410029056F82A0002F0F0FE4F
:10121000216D834655F82A0002F0EAFE4FF07C511A
:1012200002F0EEFF039A45F82A004FF07C51104679
:1012300002F0E6FF029B48F82A004FF07C51184666
:1012400002F0DEFF4FF07C5147F82A00584602F0CA
:10125000D7FF2A4946F82A00484602F0C9FE03F0A3
:1012600095F9D4F88010814658F8200002F0C0FEAD
:10127000D4F8AC10029057F8290002F0B9FED4F867
:10128000D810834656F8290002F0B2FE616D8246FE
:1012900055F8290002F0ACFE4FF07C5102F0B0FF8F
:1012A000029B45F829004FF07C51184602F0A8FF38
:1012B0004FF07C5148F82900584602F0A1FF4FF04A
:1012C0007C5147F82900504602F09AFF019B46F8EE
:1012D00029000A2B04F1E0047FF440AD084BDFF84D
:1012E00024A00193DFF820B0DFF820904FF0010830
:1012F0008BE000BF0000E0400000104100002041F2
:1013000010C6FF1F80AFFF1F94DCFF1FFC98FF1F5C
:10131000DBF80070D9F80060019B694953F8045F5D
:101320000193284603F00AF9DAF8004088B16449CD
:10133000204603F003F960B16149384603F0FEF836
:1013400038B15F49304603F0F9F810B1019B5C4DAC
:101350001D604FF07E51204603F0F0F8002840F069
:101360009D801FFA88F300213846029303F0FAF8B3
:10137000002800F08A8038464FF07C5102F038FE99
:1013800003F004F9074600213046FFB203F0EAF803
:10139000002871D030464FF07C5102F029FE03F056
:1013A000F5F8064600212846F6B203F0DBF80028DF
:1013B00059D028464FF07C5102F01AFE03F0E6F8AF
:1013C000054600212046EDB203F0CCF8002842D0BB
:1013D0004FF07C51204602F00BFE03F0D7F8C3B269
:1013E0002A463146384600F099FA08F101080246CB
:1013F0000299344800F05AFAB8F5B46F0AF1040AB9
:101400000BF1040B09F1040957D00221002001F06F
:1014100097FC00283FF47CAFD9F800604FF0804182
:10142000304603F08BF800283DD1DBF800704FF018
:101430008041384603F082F800283FF46DAF022166
:10144000002001F07DFC02F087FED9F80060CBF8A7
:101450000000074660E74FF07C51204602F0C6FDD1
:1014600003F094F8BBE728464FF07C5102F0BEFD34
:1014700003F08CF80546A4E730464FF07C5102F0AB
:10148000B5FD03F083F806468CE738464FF07C51F3
:1014900002F0ACFD03F07AF8074674E74FF07E5493
:1014A000CAF800405DE70221002001F049FC02F08B
:1014B00053FE0646C9F80000B7E705B0BDE8F08F57
:1014C00000002041FCC5FF1F2DE9F04100F024FD84
:1014D0000D4F0E4E00F020FD0546FFF72DFC0C4889
:1014E00000F040F901244FF4C87800F015FD3B6886
:1014F00094FBF3F3281A06FB03F39842EAD243461F
:10150000013BFDD1F1E700BF2487FF1F40420F00E0
:10151000FCC5FF1FF8B5664CC623204602224FF4D7
:10152000B46100F0CDF82046624A634903F054F8F4
:10153000624B0020002103F5E47703F5E87403F51E
:101540002A7603F52C750022C7E90001C4E90001E1
:1015500003F562770024C6E90001C5E9000103F53F
:10156000647603F58D651A60C3E90201C3E90401DD
:10157000C3E93A01C3E93C01DA611A625A629A622C
:10158000C3F8E020C3F8FC20C3F80021C3F804210D
:10159000C3F80821C3F8C021C3F8DC21C3F8E02157
:1015A000C3F8E421C3F8E821C3F8A022C3F8BC22A1
:1015B000C3F8C022C3F8C422C3F8C8229C61C3F890
:1015C000F840C3F8D841C3F8B842C3F88023C7E94C
:1015D0000001C6E90001C5E9000103F58E6703F5C6
:1015E000A96603F5AA65C7E90001C6E9000103F58C
:1015F000C56703F5C666C5E9000103F5E165C7E9FE
:101600000001C6E90001C3F89843C3F89C23C3F85E
:10161000A023C3F8A423C3F8A823C3F86024C3F805
:101620007844C3F87C24C3F88024C3F88424C3F826
:101630008824C3F84025C3F85845C3F85C25C3F88F
:101640006025C3F86425C3F86825C3F82026C3F8CD
:101650003846C3F83C26C3F84026C3F84426C3F8EE
:101660004826C3F8002703F5E267C5E9000103F542
:10167000FD6603F5FE65C7E90001C6E90001C5E99D
:101680000001C3F81847C3F81C27C3F82027C3F884
:101690002427C3F82827C3F8E027C3F8F847C3F87E
:1016A000FC27C3F80028C3F80428C3F80828F8BDAD
:1016B000FCC5FF1F2087FF1F211700003890FF1F68
:1016C000F8B5C3F30116C3F3811704460D46B742BC
:1016D00014BF0421032115FB01F0C3F38101FF2B8B
:1016E000617303F0030180B28CBF00230123A17357
:1016F000002126736170E17121612370E773A0807E
:101700000121164602F06EFFA06018B1A671658037
:101710002046F8BDA671A08060802046F8BD00BFBD
:1017200010B50446806808B102F0D0FF94F90600B5
:10173000002803DBC0B2002100F0B2FB204610BD40
:1017400010B5044690F90600002807DBC0B201215D
:1017500000F0A6FB0021A07900F07EFB012363705E
:1017600010BD00BF2DE9F8438368002B4FD004461D
:1017700000F0D2FB2369C01AB0F5967FF8D372B699
:10178000464994F906500B684548464A50F83500DA
:10179000A668A788257843F080730B60136843F030
:1017A000010337441360A5B3A1F55D41F8390A6818
:1017B000BE4202F196021FD289464FF0010C16F884
:1017C000018B4FF0080E80250B689B1A952BFBD9D7
:1017D00018EA050FD9F8002080F880C055D00B68B2
:1017E0009B1A5F2BFBD9BEF1010E80F800C14FEAB6
:1017F0005505E9D1B742E2D12B490B689B1A952BCD
:10180000FBD962B600F088FB2061BDE8F883BDE833
:10181000F88325490A68BE4202F5967220D28946AD
:101820004FF0010C16F8018B4FF0080E80250B6865
:101830009B1AB3F5967FFAD318EA050FD9F8002062
:1018400080F880C018D00B689B1A8F2BFBD9BEF193
:10185000010E80F800C14FEA5505E8D1B742E1D149
:1018600011490B689B1AB3F5967FFAD362B600F064
:1018700053FB2061BDE8F8830B689B1A3B2BE6D82D
:101880000B689B1A3B2BF7D9E1E70B689B1A1D2BC2
:10189000A9D80B689B1A1D2BF7D9A4E7FCED00E033
:1018A00098500000001000E0041000E043888B42D4
:1018B00028D9C379F0B5160C150AF6B2EDB25FFA65
:1018C00082FE5BB103FB06F603FB05F503FB0EFE90
:1018D000C6F30726C5F30725CEF3072EC77B047B87
:1018E000BC4215D0846804EB8101120E0F4453B939
:1018F000D2B23A70077BCE55437BCD54837B01F83F
:1019000003E0F0BD704703FB02F2C2F30722F0E7E9
:10191000836801EB41011944EDE700BF42EA01226F
:1019200042EA004040EA0360704700BF374A384946
:1019300013681B06FCD40B6813F08003F8D172B651
:1019400034490A78002A5FD0334A3448F0B4344C22
:10195000176806682568D4680C303E441432006865
:101960001268304F35442C4420440244C2F34E02E6
:101970002D4E2E482E4D2F4C42F400423A603768CF
:1019800006682D682C4A24680C303E4400681268B2
:101990002A4F35442C4420440244C2F34E02284EC0
:1019A0002848294D294C42F400423A6037680668BD
:1019B0002D68274A24680C303E4400681268254F81
:1019C00035442C4420440244C2F34E02224E2348A4
:1019D000234D244C42F400423A60376806682D6873
:1019E000214A24680C303E440068126835442C4477
:1019F00020440244C2F34E021C4842F400420260FA
:101A00000B7062B6F0BC704762B6704724B00340FA
:101A100024B00B4011F3FF1F38B003403CB003402B
:101A200040B003402CB0034058B003405CB00340CA
:101A300060B0034064B003406CB0034030B003407A
:101A400038B00B403CB00B4040B00B4044B00B40B2
:101A50004CB00B402CB00B4058B00B405CB00B406E
:101A600060B00B4064B00B406CB00B4030B00B402A
:101A700030B42948294A2A4B2A4D6024E1210470B8
:101A800011701B78284C082B30D00A2B2748284986
:101A900037D00C2B0CBF35225D2212232A60236025
:101AA00002600B60234B24491B78244ABBB10123FD
:101AB0000B601360224B23491B78234A012B26D944
:101AC000042B0FD9082B1ED9102B94BF86238723F4
:101AD0000B6013601D4B01221A7030BC70470B6005
:101AE0001360E7E784230B601360F3E700F58E20B3
:101AF0000F490830212213232A60236002600B6003
:101B0000D0E73922F7E785230B601360E2E78023F3
:101B10000B601360DEE700BF004007400140074054
:101B20002887FF1F08B003400CB0034008B00B40EB
:101B30000CB00B4014F3FF1F20B0034020B00B404B
:101B40002987FF1F24B0034024B00B4011F3FF1F6F
:101B500028282FD8334B2DE9F0411E5CFF2E2BD0C7
:101B6000314B1B78002B2AD132062CD472B62F4D64
:101B70002F4C2F46012326602B7062B672B6236865
:101B80001B060CD43B781BB9F4E72B78002BF1D063
:101B900062B601F00BF972B623681806F5D5254B2D
:101BA0001B6800222A7062B6234A107843FA00F0BC
:101BB000BDE8F081002070470020BDE8F081FFF70C
:101BC000B5FE3206D2D572B61C4DDFF87C801C4CB7
:101BD00006F04007FFB206F03F06D8F80030DFB14C
:101BE00023F01003C8F8003001232660134A2B703D
:101BF00062B672B6236819060CD413781BB9ECE7E9
:101C00002B78002BE9D062B601F0D0F872B62368C9
:101C10001B06F5D50B4BC3E743F01003C8F80030A3
:101C2000E2E700BF6C50000011F3FF1F13F3FF1F2A
:101C300000B0034010B0034010F3FF1F12F3FF1F6A
:101C400000B00B4010B00B400CB00B4030B4054B53
:101C5000054D064C002210211A602A602060196090
:101C600030BC704714D0034004D0034000D0034080
:101C70002DE9F8436A4B6B496B4E6C4D6C4CDFF8A9
:101C8000D0C1DFF8D0E16B4A6B4F4FF40000186011
:101C90004FF0807018604FF0007018604FF0806057
:101CA00018604FF0006018600020086028234EF68E
:101CB000FF71CCF80010CEF80030336013602B6059
:101CC00023603B60B3629362092245F8242CC4F878
:101CD000D80F05F57F65C7F8D41F07F5FF2707F56F
:101CE000FA67C6F8F83F2B6006F5FF26C4F8D42F34
:101CF00005F5FD2504F5FF24386006F2F4764F481B
:101D0000316005F5FF6504F5FD642B60236002601A
:101D1000FFF7AEFE72B64A4D4A4B4B4A1B682C6821
:101D2000126862B6510102D5322B88BF0134C3F567
:101D3000EA33464FDFF80C91DFF80C81BF334FF4E4
:101D40007A72A7FB031302FB04F404EB931432260C
:101D500072B6D9F800102A68D8F800E062B6C1F56A
:101D6000EA33BF33A7FB03031EF0806FC4EB93136A
:101D70004FF47A7002D0322988BF013200FB02335F
:101D8000B3F57A7F04D3013E05D004F57A74DFE71A
:101D900001F00CF8DCE700F0E1FE72B6294B2A4AAC
:101DA0001B682C68126862B6520102D5322B88BFBC
:101DB0000134C3F5EA33254FDFF88890DFF88880D7
:101DC000BF334FF47A72A7FB031302FB04F404EB56
:101DD00093144FF4AF7672B6D9F800102A68D8F889
:101DE00000E062B6C1F5EA33BF33A7FB03031EF080
:101DF000806FC4EB93134FF47A7002D0322988BFFE
:101E0000013200FB0233B3F57A7F04D3013E05D0E3
:101E100004F57A74DFE700F0C9FFDCE7BDE8F8837A
:101E200008E100E004800340148003402480034064
:101E30002C8003401C8003403480034000800B4012
:101E400018F3FF1F18E000E004ED00E0898888889F
:101E5000088003400C80034021280BD810B40F4B9E
:101E600053F8302092F880422CB1012369B182F8F6
:101E7000803010BC704703EBC00043681A6841B95A
:101E800022F002021A6010BCF4E782F8003110BCA4
:101E9000F0E742F003021A6010BCEBE79850000034
:101EA000212820D81B4A02EBC00301295B680FD010
:101EB00004291DD052F83000002280F8802299B108
:101EC000022922D003290DD14FF481721A60704784
:101ED00052F830004FF4A27280F880121A601A682B
:101EE00022F020021A6070474FF480721A60704727
:101EF00052F830104FF4A272012081F880021A606B
:101F00001A6842F020021A60704740F203121A6009
:101F1000704700BF9850000072B60C490C4B0D4A38
:101F20001B680868126862B6520102D5322B88BF5E
:101F300001300949C3F5EA334FF47A72BF33A1FB8C
:101F4000031302FB00F000EB9310704718F3FF1F20
:101F500018E000E004ED00E08988888830B472B6AB
:101F60002B4A13781D0706D52A4B196A002936D04B
:101F7000996A002941D053781C0706D5254B196C66
:101F800000293ED0996C002939D09378190705D5DE
:101F9000204B196E002936D0996E89B1D3781B0772
:101FA00007D51C4BD3F880207AB3D3F888201121B1
:101FB0003AB162B6184B00221A7030BC00F05ABE1B
:101FC0000D21154C154D227843F8315003EBC10318
:101FD0000830013A5860227062B630BC7047042263
:101FE0000D4C0F4D217843F8325003EBC2030830FB
:101FF0004A1E5860227062B6EFE70521E1E7092129
:10200000DFE70822ECE70C22EAE71022E8E700BF4E
:10201000A85100000080FF1FF1F3FF1FC80040001F
:1020200088004000431E032B1DD81B4A400140F08E
:10203000100030B4104472B6184CE25C032A1BD86E
:10204000DFE802F00212151703220D88E25410F0A7
:10205000080F14BFC823882343EA054308310360EF
:10206000416062B630BC704708300222EDE70522BD
:10207000EBE708300422E8E7094A52F8230038B1B8
:10208000084A52F82300416042F8231062B6E9E79B
:1020900042F82310034AF7E70080FF1F00F4FF1FF8
:1020A000C8F3FF1FD8F3FF1F2DE9F04FDFF80CB383
:1020B000DFF80CA387B044E0AB4F4FEA930807EB7F
:1020C000C809013ED9F8042003F00803F6B2A2F1D2
:1020D000080003F0FF04002B40F0028157F838306D
:1020E0001B0C99B222F8081C002B00F0F0809F4BCB
:1020F00022F8064C42F8044C53F82620002A00F03F
:10210000C5829B4D55F8263058609A4C45F82600FC
:1021100034F81630194424F8161000F08BFD00280E
:1021200000F0AD82944A954B19F0080F00F10800B9
:1021300018BF1346C9F8040047F8383008238BF855
:1021400000309BF80040E4B261071AD58C4B1B7835
:10215000A3B18C490A7802F0FF0322B1013BDBB244
:102160000B7003B900BE88490A7802F0FF032AB158
:10217000013BDBB20B70002B00F0578204238BF87D
:10218000003004F0080303F0FF02002B00F0CC80C5
:102190009AF80030DBB21E098ED19C08DFF8C89196
:1021A00059F8342009EBC401C2F38302013A4968AB
:1021B0000C2A00F28880DFE802F07C7C8686868626
:1021C00086864786868607000868704D4A68704F85
:1021D000704E286081B240F28160674B6A604FF0B8
:1021E000010E0022814249F834303A60C9F81020CB
:1021F000C9F8182086F800E05B4C00F2E380B1F5E6
:10220000D06F80F04683B1F5817F00F0FC8200F250
:102210008D82802900F07783822940F0FA82A98894
:1022200001F07F01042900F2F4825B485B4C8900D5
:102230000844227062700278930740F1558484F854
:1022400000E04FF0020E42E3514F3A6832B3544B74
:10225000504E5449188834780D784028864645F009
:10226000020828BF4FF0400E002C84F001043470A7
:10227000CEEB00000CBF8824C82409EBC80680B24E
:1022800085F0010544EA0E447260188049F8384030
:1022900072440D70002800F045813A603B4B1A886B
:1022A000B2F5A06F0FD100219A7859703E4B1A7089
:1022B00009E0364A108842F22102904200F037814C
:1022C0002D4A49F83420394A0123137036E72A4A47
:1022D0002A4B19F0080F18BF134647F838302DE77E
:1022E00000F0C8FC324A334952F82630002B00F087
:1022F000D18158688C5D42F8260003F10802C9F8C4
:102300000420032C05D8DFE804F02C022926022241
:102310008A551A8819F0080F0CBF8823C82343EA8E
:10232000024347F8383009E7E00700F181812106D0
:1023300000F1F281A20706D51F4A20491378022036
:10234000DBB213700870E30602D51C4B10221A7022
:1023500007B0BDE8F08F04228A55DAE705228A55D6
:10236000D7E703228A55D4E70080FF1F74F3FF1FCD
:1023700020F3FF1FF8F5FF1FC80040008800400051
:10238000FCF3FF1F85F3FF1F04F4FF1FE8F3FF1F9B
:102390001CF3FF1F84F3FF1FC0200740F4F3FF1F4F
:1023A00030F3FF1FF0F3FF1F9820074094200740F1
:1023B000C8F3FF1F00F4FF1F88200740802007405C
:1023C0009020074042F22100814200F02A8100F271
:1023D000D880B1F5086F00F07682B1F5106F40F04B
:1023E0001882226AB349A8780870120600F1378370
:1023F000D9F82820B049130600F12C83D9F83020F1
:10240000AD49150600F1FF82D9F83820AA49140613
:1024100000F1F482D9F84020A749100600F1478363
:10242000D9F84820A449120600F13C83D9F850207D
:10243000A149130600F13183D9F858209E491506A9
:1024400000F12683D9F860209B49140600F11B8314
:10245000D9F868209849100600F11083D9F8702047
:102460009549120600F10583D9F8782092491306A0
:1024700000F1FA82D9F880208F49150600F12E83E9
:10248000D9F888208C49140600F12283D9F89020CD
:102490008949100600F11683D9F89820864912065A
:1024A00000F10A838548864A864901908648874C10
:1024B000874D029400230497059680461C460F46DC
:1024C00016460395306828B1456800F0D3FB2846CE
:1024D000002DF9D100233360039B38681A4600238E
:1024E00042F8243028B1456800F0C4FB2846002D8E
:1024F000F9D100223A60019A98F800301146002282
:1025000041F8042B029A0191023B4FF0000122F89E
:102510001410032B00F22B81DFE813F0700125016A
:1025200070012501BEF1400F18BF0022B5E6694ACF
:102530000D784878157050708D78C8789570D07087
:1025400010680D79157186284D79897955719171C9
:1025500000F09B816049614E0A78307882F0010575
:10256000002842F002020D700CBF8821C82149F8F2
:10257000321009EBC20280F001000021307051607E
:102580009EE642F22120814240F0CB81544B554CD3
:102590005549A8781D682560CDF804E00870002032
:1025A00002908046844604464B490D7845F0020E61
:1025B00009EBCE030393019B002B039B5C600CBFD4
:1025C0008824C82444EA080385F0010449F83E3011
:1025D00032700C70DFF8E0E0404BDFF8FC80002840
:1025E00040F01E81BCF1400F1BD144F0020C09EBFE
:1025F000CC03029CDFF8C0E05C60002A40F026813A
:10260000020442F088029DF804304EF83C20044455
:1026100033700D702346402803D10020334A3B60BD
:102620001080334A012313704DE600F057FBA5E5F7
:10263000214B2F4828491A614FF0020E80F800E024
:102640002C4F0A702C49196099602C4E2C4D2D4C42
:102650009A610D213970FF213170DFF8B8E02970DF
:102660002270294D294A8EF800109F27012406F870
:10267000047C5D600470DA6007B0BDE8F08F244A26
:1026800047F8380013780133137057E543F82600F4
:102690000F4D3AE58B5D032B00F2F08001A252F85A
:1026A00023F000BF3D2100003D2100006127000014
:1026B0005B270000FCF3FF1F0080FF1FD8F3FF1F04
:1026C00074F3FF1FC8F3FF1F00F4FF1FF8F5FF1F8F
:1026D00020F3FF1F00F6FF1FF0F3FF1F84F3FF1F1F
:1026E00018F3FF1F08F6FF1F10F4FF1F30F3FF1F42
:1026F00094200740C0200740880040008820074001
:10270000802007409820074034F3FF1F88F3FF1F05
:10271000F1F3FF1F8C200740BD49BE4B80220D20E6
:1027200008701A70A2077FF50EAE05E640F202327D
:10273000914240F0EE80A98801F07F01042968D819
:102740006A88002A65D1B248CDF804E089000844BF
:10275000017841F00201017021E701238B55EDE47E
:1027600000238B55EAE44FF0010388F80030013470
:10277000042C06F1040607F1040708F101087FF4B0
:10278000A1AEA54CA54B2278A54D049F059E002126
:1027900029701A70130700F105816278A149DFF8EA
:1027A00090820A7010074FF00001C9F83010C9F884
:1027B000381000F1E1809C49A2780A700021C9F824
:1027C0005010C9F858101107DFF8648200F1008139
:1027D000E2789649964C0A7000211207C9F87010E9
:1027E000C9F8781000F1B08033780193002183F0AC
:1027F0000102C9F89010C9F89810D0E64FF0000314
:1028000088F80030B3E7A98801F07F01042940F27D
:102810008D807F4A0F231370864A0123137052E57F
:1028200040287FF6E2AE44F002040EEBC401029EA3
:102830004E60BAB19DF804107F4A19703346403893
:1028400088F8005040334EF83420E7E69DF8043015
:1028500033700204029B0D7042F0C80203444EF82C
:102860003C20D8E69DF804101970029B734A88F842
:102870000050403840334EF83420CFE619F0080FAE
:102880000CBF022303238B5558E46D4A0F211170AE
:1028900060E66C4A5468002CBBD06888B5F804E048
:1028A00003E00C325468002CB3D013888342F8D173
:1028B00053887345F5D1000A03280CBF94F800E053
:1028C000B2F808E003E0604A604C12782270E888B1
:1028D000704580F031815E490D784028844645F08E
:1028E000020E28BF4FF0400C04EB0C0309EBCE02A4
:1028F000029301235460CCEB00004FEA0C48002205
:102900000193C8245EE6514C4FF0020E22706270B3
:10291000DDE7B1F5A06F7FF47CAF012300220193C6
:102920003DE642F221329142F7D072E76A88002AEE
:102930007FF46FAF3648CDF804E089000844017891
:1029400021F0020101702AE600F074F9002800F07D
:10295000E6800830C4F884003848C9F8800000F0E8
:1029600069F9334A002800F0D48008303249C2F8AF
:102970008C00C2F8881037E700F05CF9002800F0FE
:10298000BB800830C8F844002C48C9F8400000F06B
:1029900051F9274A002800F0AA8008302649D0645F
:1029A000916408E700F046F9002800F0C180083083
:1029B000C9F824002148C9F8200000F03BF91C4A5E
:1029C000002800F0B08008301B49D0629162E4E634
:1029D00000F030F9002800F098800830C8F8640052
:1029E0001648C9F8600000F025F9114A002800F0E7
:1029F000878008301049D0669166E9E6C86B0838D0
:102A000000F038F906E5486B083800F033F9FBE4CC
:102A1000C020074080200740A8510000C420074084
:102A2000F1F3FF1FC8200740CC200740D02007400B
:102A30000080FF1F94200740C8004000880040002D
:102A400085F3FF1FAC510000FCF3FF1FF4F3FF1FE1
:102A5000F0F3FF1FC86A083800F00CF9CEE4606A92
:102A6000083800F007F9C3E4C86F083800F002F92D
:102A700000E5486F083800F0FDF8F5E4C86E083846
:102A800000F0F8F8EAE4486E083800F0F3F8DFE404
:102A9000C86D083800F0EEF8D4E4486D083800F04E
:102AA000E9F8C9E4C86C083800F0E4F8BEE4486C02
:102AB000083800F0DFF8B3E4D1F89C00083800F0E3
:102AC000D9F8EFE4D1F89400083800F0D3F8E3E443
:102AD000D1F88C00083800F0CDF8D7E4D1F88400A4
:102AE000083800F0C7F8CBE44FF0020EEFE6297883
:102AF00090644A1C2A705EE62A7801322A7044E704
:102B0000297890664A1C2A7062E62A7801322A7077
:102B100067E72978C2F888004A1C2A7064E62A7898
:102B200001322A7019E7297890624A1C2A7034E62B
:102B30002A7801322A703EE7BEF1400FF44628BFE2
:102B40004FF0400C04EB0C0302930123CCEB0E007E
:102B50004FEA0C480022019326E500BFF8B500F0CB
:102B600061FB294B29482A4C2A4F2B4DDFF8BCC06A
:102B7000DFF8BCE0294E00221A605A609A60DA60E1
:102B80001A615A619A61DA611A625A629A62DA6269
:102B90001A635A639A63DA631A645A649A64DA6449
:102BA0001A655A659A65DA651A665A669A66DA6629
:102BB0001A675A679A67DA67C3F880200168C3F812
:102BC000842041F480210160C3F307212170C3F305
:102BD0000740134938701B0E2B70FF238CF8003010
:102BE000104D8EF8003010480B700123337084F8BC
:102BF000642070264FF40074102207F82C3C2E70CD
:102C0000046081F8F820F8BD0080FF1F3480044084
:102C10009C200740B0200740B42007409420074084
:102C20001020074049E400E008E100E08020074070
:102C30008820074072B60D480268B2FA82F30B2B67
:102C400010DC4FF00041D94022EA0102026062B676
:102C5000074803EBC303DB00C2180021C150104634
:102C60005160704762B60020704700BF2C87FF1F7D
:102C7000BC83FF1F0D4B0E4AC31AA2FB03231B0983
:102C80000B2B0CD80B4A127852B972B60A484FF087
:102C90000041026821FA03F31A43026062B67047EA
:102CA000064A1278002AF0D0FFF758B9BC83FF1FFC
:102CB000398EE338F1F3FF1F2C87FF1FFCF3FF1F52
:102CC000044B054A1B6890881BB11A885B88D31A8D
:102CD000184470470CF4FF1FF8F5FF1F38B50E4B72
:102CE0001B7873B90D4C216861B103F0FF054B8867
:102CF0000B800420FFF796F9256038BD084B0122B0
:102D00001A7038BDFFF796FF0028F7D00146BDE8DE
:102D100038400420FFF786B905F4FF1F08F4FF1FB1
:102D200004F4FF1F08B5FDF7A1FBFEF7CDFB00F093
:102D30003DF8FAE708B1014B1860704714F4FF1F23
:102D400088420CDAF0B4144D2A68091A42B9134BC0
:102D50002B60F0BCB3FBF1F201FB12310844704769
:102D60000F4C104B82FB046784FB02461644D419B7
:102D7000D717C7EB2444C7EB26460B4F03FB14229F
:102D800007FB06F644F2A71303FB0263002BDFDA0E
:102D900003F10043013BDBE714F4FF1F42CE0C1F9D
:102DA0005F0B4E831DF30100ECF4FFFF38B5224C9E
:102DB000237803B138BD01232370FFF781FF70BB77
:102DC00000F088F840BB00F01BF910BB00F0AEF932
:102DD000E0B900232370EFF30583002BEAD1EFF372
:102DE000108172B6154B1868E0B1154C2278CAB93B
:102DF00045691D6001232370C5B1AA6101B962B69E
:102E000000254577836898472570D3E700F0F6FBE7
:102E1000DFE700F0F1FBD9E700F0ECFBD3E700F0CF
:102E2000EFFBCDE70029C5D162B638BD054B1D606B
:102E30000029E5D1E3E700BF18F4FF1FB8F5FF1F35
:102E4000BCF5FF1FB4F5FF1F08B5104C08E0236860
:102E500059050DD423681A050FD42368DB0411D457
:102E600023685803F3D5FFF71FF923685905F1D5F7
:102E700000F040F823681A05EFD500F0D1F8236878
:102E8000DB04EDD500F062F9EAE700BF34800440CE
:102E900008B5FFF7D9FF00BF014B10221A80704719
:102EA00000200540704700BF094908B50B6830B1E4
:102EB0006A461844A2F58052904202D20860184631
:102EC00008BD01F0CDFB0C2303604FF0FF3008BDBF
:102ED0003087FF1F054A064B10781B78C0B2DBB263
:102EE000984238BF4030C01A704700BFA4F4FF1F9B
:102EF00021F4FF1FF0B4384B1A7912F0300F2CD0A8
:102F000072B6997D01F0FF0200293DD062B6334FC1
:102F1000334938780D78334E1C46C0B2EDB2431CAD
:102F2000402BE17928BF0023AB4202F1FF32C9B246
:102F30001CBFF154184612F0FF02F0D12A4B1B6857
:102F4000C2B23A704BB1A84236BFC5F14005401B32
:102F500040192728C4BF01221A701F49CA78D2B26B
:102F6000150616D452060DD51B4B1B795B0609D5E9
:102F70001E4B1F491B6800220A7003B11A70164BC2
:102F80003C22DA70F0BC70474022D9795A7462B69C
:102F9000E3E70B791C06E5D5164B174E1C78337802
:102FA000E4B2DBB29C420ED0144D01E0A3420AD041
:102FB0000133402B28BF00230879E85CC0B2C871F8
:102FC000087D0728F2D9DBB2034933700B79180664
:102FD00044BF7C23CB70C5E700A00640A4F4FF1FCC
:102FE00021F4FF1F64F4FF1F1CF4FF1FA8F4FF1F50
:102FF00020F4FF1FACF4FF1FA5F4FF1F24F4FF1FF4
:10300000054A064B10781B78C0B2DBB2984238BF35
:103010004030C01A704700BF20F5FF1FB5F4FF1FF6
:10302000F0B4384B1A7912F0300F2CD072B6997D6B
:1030300001F0FF0200293DD062B6334F33493878A2
:103040000D78334E1C46C0B2EDB2431C402BE179E3
:1030500028BF0023AB4202F1FF32C9B21CBFF154BA
:10306000184612F0FF02F0D12A4B1B68C2B23A7028
:103070004BB1A84236BFC5F14005401B4019272877
:10308000C4BF01221A701F49CA78D2B2150616D4DD
:1030900052060DD51B4B1B795B0609D51E4B1F49EC
:1030A0001B6800220A7003B11A70164B3C22DA70BA
:1030B000F0BC70474022D9795A7462B6E3E70B79C5
:1030C0001C06E5D5164B174E1C783378E4B2DBB2FC
:1030D0009C420ED0144D01E0A3420AD00133282BAC
:1030E00028BF00230879E85CC0B2C871087D0728B2
:1030F000F2D9DBB2034933700B79180644BF7C2345
:10310000CB70C5E700B0064020F5FF1FB5F4FF1FE8
:10311000E0F4FF1FB0F4FF1F24F5FF1FB4F4FF1FFE
:1031200028F5FF1F21F5FF1FB8F4FF1F054A064BC6
:1031300010781B78C0B2DBB2984238BF4030C01A5A
:10314000704700BF9CF5FF1F31F5FF1F30B42B4BBC
:103150001A7994061FD52A48DA7903782949013368
:103160003F2B0978C8BF00238B42D2B203D0264C34
:10317000D9B2E2540170254A116861B1244A12782B
:10318000D2B2934236BFC2F140029B1A9B18272B42
:10319000C4BF01230B70194AD378DBB2180611D4CF
:1031A0005A060DD5154B1B795B0609D5194B1A49E3
:1031B0001B6800220A7003B11A70104B2C22DA70BF
:1031C00030BC704711790906EAD5144910480C78CB
:1031D0000178C9B28C420DD04A1C272A84BF002135
:1031E0000A460F4D054C98BFD1B2AA5CD2B2E2712B
:1031F0000170D5E76C21D170D2E700BF00C0064056
:103200009CF5FF1F31F5FF1F5CF5FF1F2CF5FF1F1D
:103210009DF5FF1FA0F5FF1F30F5FF1FA4F5FF1F51
:1032200034F5FF1F70B584B072B6304B304D314865
:10323000702241260F2480211A702E701A460470C5
:10324000197013781B06FCD52B4B186862B62B4BF4
:10325000984298BF00EB80004FF00A0298BF4000F0
:1032600001A900F0CFF99DF80420254B52B39DF839
:1032700005105A8061B39DF80620998052B39DF8DD
:103280000710DA8041B39DF80820198132B39DF808
:1032900009105A8121B39DF80A20998112B39DF833
:1032A0000B10DA8101B39DF80C2019824AB19DF808
:1032B0000D105A82092229B1162299821A7004B07F
:1032C00070BD082201325200D2B21A7004B070BD33
:1032D0000122F7E70222F5E70322F3E70422F1E7F0
:1032E0000522EFE70622EDE70722EBE700000240A8
:1032F0000700024006000240080002407F96980046
:10330000C087FF1F10B4047F4160022C0346C260D7
:103310000FD0EFF3108172B6427F32B9007F0128DF
:103320000AD0032812D001225A7701B962B610BC24
:103330007047836810BC1847114C2068A0B1114831
:103340005A6102689A6103605361ECE70E4C206891
:1033500080B10E485A6102689A61036053610C4A59
:103360004FF080501060DEE7064A58619861236094
:103370001360D8E7054A5861986123601360EEE74F
:10338000B8F5FF1FB4F5FF1FA8F5FF1FACF5FF1F31
:1033900004ED00E070B5EFF3108272B60C4C2068BB
:1033A00080B10C4E00254369236073B19D6102B961
:1033B00062B6457783689847EFF3108272B620684B
:1033C0000028F0D102B962B670BD3360EFE700BFEC
:1033D000A8F5FF1FACF5FF1F2DE9F843794E3468BF
:1033E000002C31D02368002B2CD1DFF8EC91764FE4
:1033F000DFF8E8811D46A36803B1DD602069336012
:10340000036825751B684B456AD1037F4560022B15
:10341000C46069D0EFF3108272B6437F43B9017F75
:10342000012900F09080032900F09980012343775F
:1034300002B962B66368002B3FD1346824B12368B7
:10344000002BD8D0013B2360EFF3108372B65F4AA4
:1034500000211068116003B962B6002800F0AD8049
:103460004FF000083568C4464FF0020E0EE0CB1A4C
:103470008560C0F80CC001462B60E8604FF0010881
:1034800080F814E00D463846002F51D08768002D93
:1034900053D0036829688B42E9D32C4603E01168B6
:1034A0008B42144635D3A2685B1A0360002AF6D11A
:1034B0008260C4602946A060E2E73068414A236028
:1034C000002868D001688B4211D2CB1AA060E56059
:1034D0000360C46014602046022323750446AEE7EF
:1034E000224600219847A5E783689847A2E78646C9
:1034F00003E011688B4296463ED3DEF808205B1A43
:103500002360002AF5D1A260C4F80CE0CEF8084090
:10351000E2E7D268C2608460E060C268CB1A2946E4
:1035200090600D46236080F814E03846002FADD13E
:10353000B8F1000F43D1BDE8F8838560C56001464E
:103540004FF001089CE7DFF898E0DEF8001039B38F
:103550001F4943610B6883610860586166E73968F9
:1035600029B31C4943610B688361086058614FF0BF
:103570008053C8F8003059E7D268E260C4F808E028
:10358000CEF80C40E268CB1A02219460CEF80030ED
:103590002175044653E7A060E060146020469BE775
:1035A0000B4B41618161CEF8000018603EE7094B8A
:1035B0004161816138601860D9E7BDE8F883316006
:1035C000BDE8F883B0F5FF1FA8F5FF1FC0F5FF1F8A
:1035D000B4F5FF1FACF5FF1F0533000004ED00E05C
:1035E000B8F5FF1F024A136801331360FFF7F4BEFA
:1035F00018F3FF1F704700BF704700BF704700BF40
:10360000704700BFF0B44D1E2E46002400E0013488
:10361000B0FBF2F302FB1300092800F130078ABF68
:103620003730F8B2C0B206F8010F1846002BEED1C1
:103630000A1953704CB1107815F8016F28700133D6
:10364000E01A834202F80169F5DB0846F0BC7047D6
:1036500081F0004102E000BF83F0004330B54FEA43
:1036600041044FEA430594EA050F08BF90EA020FB0
:103670001FBF54EA000C55EA020C7FEA645C7FEA43
:10368000655C00F0E2804FEA5454D4EB5555B8BF66
:103690006D420CDD2C4480EA020281EA030382EAD7
:1036A000000083EA010180EA020281EA0303362D69
:1036B00088BF30BD11F0004F4FEA01314FF4801C3C
:1036C0004CEA113102D0404261EB410113F0004F4E
:1036D0004FEA03334CEA133302D0524263EB430305
:1036E00094EA050F00F0A780A4F10104D5F1200EA3
:1036F0000DDB02FA0EFC22FA05F2801841F10001FE
:1037000003FA0EF2801843FA05F359410EE0A5F1D1
:1037100020050EF1200E012A03FA0EFC28BF4CF002
:10372000020C43FA05F3C01851EBE37101F00045B8
:1037300007D54FF0000EDCF1000C7EEB00006EEBC5
:103740000101B1F5801F1BD3B1F5001F0CD349084F
:103750005FEA30004FEA3C0C04F101044FEA4452A6
:1037600012F5800F80F09A80BCF1004F08BF5FEA2D
:10377000500C50F1000041EB045141EA050130BD0D
:103780005FEA4C0C404141EB010111F4801FA4F1B0
:103790000104E9D191F0000F04BF01460020B1FA05
:1037A00081F308BF2033A3F10B03B3F120020CDA3D
:1037B0000C3208DD02F1140CC2F10C0201FA0CF01B
:1037C00021FA02F10CE002F11402D8BFC2F1200C80
:1037D00001FA02F120FA0CFCDCBF41EA0C01904036
:1037E000E41AA2BF01EB0451294330BD6FEA04047F
:1037F0001F3C1CDA0C340EDC04F11404C4F120026A
:1038000020FA04F001FA02F340EA030021FA04F37B
:1038100045EA030130BDC4F10C04C4F1200220FAD2
:1038200002F001FA04F340EA0300294630BD21FA10
:1038300004F0294630BD94F0000F83F4801306BFD6
:1038400081F480110134013D4EE77FEA645C18BFCA
:103850007FEA655C29D094EA050F08BF90EA020F61
:1038600005D054EA000C04BF1946104630BD91EA59
:10387000030F1EBF0021002030BD5FEA545C05D15C
:103880004000494128BF41F0004130BD14F580049B
:103890003CBF01F5801130BD01F0004545F0FE410F
:1038A00041F470014FF0000030BD7FEA645C1ABF44
:1038B000194610467FEA655C1CBF0B46024650EA7B
:1038C000013406BF52EA033591EA030F41F40021A7
:1038D00030BD00BF90F0000F04BF0021704730B52D
:1038E0004FF4806404F132044FF000054FF0000102
:1038F00050E700BF90F0000F04BF0021704730B5C3
:103900004FF4806404F1320410F0004548BF404297
:103910004FF000013EE700BF42004FEAE2014FEAEC
:1039200031014FEA02701FBF12F07F4393F07F4FC7
:1039300081F06051704792F0000F14BF93F07F4FF9
:10394000704730B54FF4607401F0004521F000413C
:1039500020E700BF50EA010208BF704730B54FF0C2
:1039600000050AE050EA010208BF704730B511F0C7
:10397000004502D5404261EB41014FF4806404F1FF
:1039800032045FEA915C3FF4DCAE4FF003025FEA81
:10399000DC0C18BF03325FEADC0C18BF033202EB09
:1039A000DC02C2F1200300FA03FC20FA02F001FA63
:1039B00003FE40EA0E0021FA02F11444C1E600BF02
:1039C00070B54FF0FF0C4CF4E06C1CEA11541DBFB5
:1039D0001CEA135594EA0C0F95EA0C0F00F0DEF880
:1039E0002C4481EA030621EA4C5123EA4C5350EA65
:1039F000013518BF52EA033541F4801143F48013B6
:103A000038D0A0FB02CE4FF00005E1FB02E506F046
:103A10000042E0FB03E54FF00006E1FB03569CF09B
:103A2000000F18BF4EF0010EA4F1FF04B6F5007FA1
:103A300064F5407404D25FEA4E0E6D4146EB060613
:103A400042EAC62141EA55514FEAC52040EA5E509C
:103A50004FEACE2EB4F1FD0C88BFBCF5E06F1ED846
:103A6000BEF1004F08BF5FEA500E50F1000041EB7D
:103A7000045170BD06F0004646EA010140EA02002A
:103A800081EA0301B4EB5C04C2BFD4EB0C0541EA4C
:103A9000045170BD41F480114FF0000E013C00F361
:103AA000AB8014F1360FDEBF002001F0004170BD85
:103AB000C4F10004203C35DA0C341BDC04F114049E
:103AC000C4F1200500FA05F320FA04F001FA05F22A
:103AD00040EA020001F0004221F0004110EBD370F7
:103AE00021FA04F642EB06015EEA430E08BF20EA23
:103AF000D37070BDC4F10C04C4F1200500FA04F3C6
:103B000020FA05F001FA04F240EA020001F0004157
:103B100010EBD37041F100015EEA430E08BF20EACA
:103B2000D37070BDC4F1200500FA05F24EEA020E12
:103B300020FA04F301FA05F243EA020321FA04F041
:103B400001F0004121FA04F220EA020000EBD370F8
:103B50005EEA430E08BF20EAD37070BD94F0000FF8
:103B60000FD101F00046400041EB010111F4801F2C
:103B700008BF013CF7D041EA060195F0000F18BFDD
:103B8000704703F00046520043EB030313F4801F19
:103B900008BF013DF7D043EA0603704794EA0C0FD3
:103BA0000CEA135518BF95EA0C0F0CD050EA4106E9
:103BB00018BF52EA4306D1D181EA030101F0004166
:103BC0004FF0000070BD50EA410606BF104619468E
:103BD00052EA430619D094EA0C0F02D150EA01369A
:103BE00013D195EA0C0F05D152EA03361CBF1046DB
:103BF00019460AD181EA030101F0004141F0FE417A
:103C000041F470014FF0000070BD41F0FE4141F4FD
:103C1000780170BD70B54FF0FF0C4CF4E06C1CEAFD
:103C200011541DBF1CEA135594EA0C0F95EA0C0FB2
:103C300000F0A7F8A4EB050481EA030E52EA03356D
:103C40004FEA013100F088804FEA03334FF080558E
:103C500045EA131343EA12634FEA022245EA1115BB
:103C600045EA10654FEA00260EF000419D4208BF6C
:103C7000964244F1FD0404F5407402D25B084FEA19
:103C80003202B61A65EB03055B084FEA32024FF4C5
:103C900080104FF4002CB6EB020E75EB030E22BF22
:103CA000B61A754640EA0C005B084FEA3202B6EBE2
:103CB000020E75EB030E22BFB61A754640EA5C0091
:103CC0005B084FEA3202B6EB020E75EB030E22BF21
:103CD000B61A754640EA9C005B084FEA3202B6EB22
:103CE000020E75EB030E22BFB61A754640EADC00E1
:103CF00055EA060E18D04FEA051545EA16754FEA43
:103D000006164FEAC30343EA52734FEAC2025FEA60
:103D10001C1CC0D111F4801F0BD141EA00014FF0EF
:103D200000004FF0004CB6E711F4801F04BF0143C0
:103D30000020B4F1FD0C88BFBCF5E06F3FF6AFAEDC
:103D4000B5EB030C04BFB6EB020C5FEA500C50F16C
:103D5000000041EB045170BD0EF0004E4EEA1131EF
:103D600014EB5C04C2BFD4EB0C0541EA045170BDF6
:103D700041F480114FF0000E013C90E645EA060E3A
:103D80008DE60CEA135594EA0C0F08BF95EA0C0F68
:103D90003FF43BAF94EA0C0F0AD150EA01347FF4B0
:103DA00034AF95EA0C0F7FF425AF104619462CE787
:103DB00095EA0C0F06D152EA03353FF4FDAE1046EA
:103DC000194622E750EA410618BF52EA43067FF43B
:103DD000C5AE50EA41047FF40DAF52EA43057FF4CB
:103DE000EBAE12E74FF0FF3C06E000BF4FF0010CD6
:103DF00002E000BF4FF0010C4DF804CD4FEA410C3A
:103E00007FEA6C5C4FEA430C18BF7FEA6C5C1BD006
:103E100001B050EA410C0CBF52EA430C91EA030F87
:103E200002BF90EA020F0020704710F1000F91EAE4
:103E3000030F58BF994208BF90422CBFD8176FEAB2
:103E4000E37040F0010070474FEA410C7FEA6C5C80
:103E500002D150EA013C07D14FEA430C7FEA6C5C87
:103E6000D6D152EA033CD3D05DF8040B704700BFB3
:103E70008446104662468C461946634600E000BF01
:103E800001B5FFF7B7FF002848BF10F1000F01BDD3
:103E90004DF808EDFFF7F4FF0CBF012000205DF89E
:103EA00008FB00BF4DF808EDFFF7EAFF34BF012023
:103EB00000205DF808FB00BF4DF808EDFFF7E0FFBC
:103EC00094BF012000205DF808FB00BF4DF808ED0D
:103ED000FFF7CEFF94BF012000205DF808FB00BF74
:103EE0004DF808EDFFF7C4FF34BF012000205DF856
:103EF00008FB00BF4FEA410212F5001215D211D59E
:103F00006FF47873B3EB625212D94FEAC12343F0D6
:103F1000004343EA505311F0004F23FA02F018BF58
:103F2000404270474FF00000704750EA013005D121
:103F300011F0004008BF6FF0004070474FF00000E4
:103F4000704700BF4FEA4102B2F1E04324BFB3F52E
:103F5000001CDCF1FE5C0DD901F0004C4FEAC00200
:103F60004CEA5070B2F1004F40EB830008BF20F0E4
:103F70000100704711F0804F21D113F13872BCBF9E
:103F800001F00040704741F480114FEA5252C2F1F3
:103F90001802C2F1200C10FA0CF320FA02F018BF3C
:103FA00040F001004FEAC1234FEAD32303FA0CFC8F
:103FB00040EA0C0023FA02F34FEA4303CCE77FEA1E
:103FC000625307D150EA01331EBF4FF0FE4040F468
:103FD0004000704701F0004040F0FE4040F4000017
:103FE000704700BF80F0004002E000BF81F0004158
:103FF00042001FBF5FEA410392EA030F7FEA226C8F
:104000007FEA236C6AD04FEA1262D2EB1363C1BF1E
:10401000D218414048404140B8BF5B42192B88BF8D
:10402000704710F0004F40F4000020F07F4018BFB0
:10403000404211F0004F41F4000121F07F4118BFD0
:10404000494292EA030F3FD0A2F1010241FA03FC78
:1040500010EB0C00C3F1200301FA03F100F0004360
:1040600002D5494260EB4000B0F5000F13D3B0F128
:10407000807F06D340084FEA310102F10102FE2A97
:1040800051D2B1F1004F40EBC25008BF20F0010007
:1040900040EA03007047490040EB000010F4000FB5
:1040A000A2F10102EDD1B0FA80FCACF1080CB2EB48
:1040B0000C0200FA0CF0AABF00EBC25052421843A7
:1040C000BCBFD0401843704792F0000F81F400014C
:1040D00006BF80F400000132013BB5E74FEA41031F
:1040E0007FEA226C18BF7FEA236C21D092EA030F8B
:1040F00004D092F0000F08BF0846704790EA010F05
:104100001CBF0020704712F07F4F04D1400028BF31
:1041100040F00040704712F100723CBF00F5000013
:10412000704700F0004343F0FE4040F40000704749
:104130007FEA226216BF08467FEA236301464202F5
:1041400006BF5FEA412390EA010F40F48000704708
:104150004FF0000304E000BF10F0004348BF4042AE
:104160005FEA000C08BF704743F0964301464FF0EA
:1041700000001CE050EA010208BF70474FF0000346
:104180000AE000BF50EA010208BF704711F0004387
:1041900002D5404261EB41015FEA010C02BF844657
:1041A0000146002043F0B64308BFA3F18053A3F5B6
:1041B0000003BCFA8CF2083AA3EBC25310DB01FAFD
:1041C00002FC634400FA02FCC2F12002BCF1004F81
:1041D00020FA02F243EB020008BF20F00100704712
:1041E00002F1200201FA02FCC2F1200250EA4C0066
:1041F00021FA02F243EB020008BF20EADC707047AC
:104200004FF0FF0C1CEAD0521EBF1CEAD15392EAB9
:104210000C0F93EA0C0F6FD01A4480EA010C400295
:1042200018BF5FEA41211ED04FF0006343EA5010EF
:1042300043EA5111A0FB01310CF00040B1F5000F31
:104240003EBF490041EAD3715B0040EA010062F1E0
:104250007F02FD2A1DD8B3F1004F40EBC25008BFCA
:1042600020F00100704790F0000F0CF0004C08BFE8
:1042700049024CEA502040EA51207F3AC2BFD2F1B5
:10428000FF0340EAC250704740F400004FF00003C3
:10429000013A5DDC12F1190FDCBF00F000407047FD
:1042A000C2F10002410021FA02F1C2F1200200FA3B
:1042B00002FC5FEA310040F1000053EA4C0308BF02
:1042C00020EADC70704792F0000F00F0004C02BF53
:1042D000400010F4000F013AF9D040EA0C0093F0CE
:1042E000000F01F0004C02BF490011F4000F013B28
:1042F000F9D041EA0C018FE70CEAD15392EA0C0F96
:1043000018BF93EA0C0F0AD030F0004C18BF31F000
:10431000004CD8D180EA010000F00040704790F0D6
:10432000000F17BF90F0004F084691F0000F91F07A
:10433000004F14D092EA0C0F01D142020FD193EA40
:104340000C0F03D14B0218BF084608D180EA0100C8
:1043500000F0004040F0FE4040F40000704740F0A4
:10436000FE4040F4400070474FF0FF0C1CEAD05272
:104370001EBF1CEAD15392EA0C0F93EA0C0F69D0CE
:10438000A2EB030280EA010C49024FEA402037D039
:104390004FF0805343EA111143EA10130CF0004030
:1043A0008B4238BF5B0042F17D024FF4000C8B4220
:1043B00024BF5B1A40EA0C00B3EB510F24BFA3EB00
:1043C000510340EA5C00B3EB910F24BFA3EB9103D0
:1043D00040EA9C00B3EBD10F24BFA3EBD10340EA2A
:1043E000DC001B0118BF5FEA1C1CE0D1FD2A3FF670
:1043F00050AF8B4240EBC25008BF20F00100704725
:104400000CF0004C4CEA50207F32C2BFD2F1FF03C7
:1044100040EAC250704740F400004FF00003013AF8
:1044200037E792F0000F00F0004C02BF400010F49C
:10443000000F013AF9D040EA0C0093F0000F01F0B0
:10444000004C02BF490011F4000F013BF9D041EAD2
:104450000C0195E70CEAD15392EA0C0F08D1420205
:104460007FF47DAF93EA0C0F7FF470AF084676E7D8
:1044700093EA0C0F04D14B023FF44CAF08466EE7B1
:1044800030F0004C18BF31F0004CCAD130F000427F
:104490007FF45CAF31F000437FF43CAF5FE700BFD7
:1044A0004FF0FF3C06E000BF4FF0010C02E000BF00
:1044B0004FF0010C4DF804CD4FEA40024FEA4103A2
:1044C0007FEA226C18BF7FEA236C11D001B052EA58
:1044D000530C18BF90EA010F58BFB2EB030088BF1E
:1044E000C81738BF6FEAE17018BF40F0010070478D
:1044F0007FEA226C02D15FEA402C05D17FEA236C6F
:10450000E4D15FEA412CE1D05DF8040B704700BFB5
:10451000844608466146FFE70FB5FFF7C9FF00284C
:1045200048BF10F1000F0FBD4DF808EDFFF7F4FF85
:104530000CBF012000205DF808FB00BF4DF808ED1E
:10454000FFF7EAFF34BF012000205DF808FB00BF41
:104550004DF808EDFFF7E0FF94BF012000205DF863
:1045600008FB00BF4DF808EDFFF7D2FF94BF012014
:1045700000205DF808FB00BF4DF808EDFFF7C8FF0D
:1045800034BF012000205DF808FB00BF4FEA400265
:10459000B2F1FE4F0FD34FF09E03B3EB12620DD971
:1045A0004FEA002343F0004310F0004F23FA02F0DB
:1045B00018BF404270474FF00000704712F1610F82
:1045C00001D1420205D110F0004008BF6FF0004059
:1045D00070474FF0000070470B460146184600F048
:1045E00039B800BF024B0A460146186800F002B80D
:1045F000008CFF1F10B502FB01F100F06FF80446BC
:10460000D8B150F8042C22F00302043A242A18D816
:10461000132A14D900231B2A0360436016D9242AC5
:104620008360C36011BF00F110020361436100F1B8
:1046300018020023136053609360204610BD0246A9
:10464000F7E7002100F002FB204610BD00F1080250
:10465000EFE700BF13460A460146022000F05ABBAE
:10466000014B1868704700BF008CFF1F70B50F4EDC
:104670000F4D761BB61018BF002405D0013455F835
:10468000043B9847A642F9D10A4E0B4D761B00F029
:10469000B9FDB61018BF002406D0013455F8043B0C
:1046A0009847A642F9D170BD70BD00BF10520000FE
:1046B000105200001C52000010520000024B014634
:1046C000186800F00BB800BF008CFF1F024B0146BA
:1046D000186800F0E3BB00BF008CFF1F2DE9F04F0E
:1046E00001F10B05162D83B0064640F29F8035F090
:1046F000070500F1BF80A94200F2BC8000F0F4FA87
:10470000B5F5FC7FC0F09C826B0A00F0BA80042BE8
:1047100000F28381A80900F1390E4FEA4E033830C8
:10472000C44F07EB8303A3F108015C68A14207D1E2
:10473000ACE0002A80F2AC80E468A14200F0A680E0
:10474000636823F003035A1B0F2AF2DDB9493C6961
:1047500001F1080E744500F0B381636823F0030390
:104760005A1B0F2A00F39981002AC1F814E0C1F8FE
:1047700010E080F29E80B3F5007F80F06781DB0857
:1047800003F1010C01229B1002FA03F34A6851F86D
:104790003C80C4F8088001EBCC091A43A9F1080356
:1047A000E3604A6041F83C40C8F80C4083100124A3
:1047B0009C40944200F28A80144206D120F003000B
:1047C0006400144200F10400FAD007EBC009CC46A3
:1047D0008046DCF80C108C4507D173E1002A80F28A
:1047E0008181C9688C4500F06D814B6823F003031B
:1047F0005A1B0F2AF2DD0C46D1F80CC054F8088F72
:104800004B1945F001054D6042F00101C8F80CC09C
:104810003046CCF808807B613B61C3F80CE0C3F8FC
:1048200008E059609A5000F061FA1FE0102921D881
:1048300000F05AFA1025062302207E4F07EB83036F
:10484000A3F108025C68944200F045816368E16866
:10485000A56823F00303234430465A68E96042F018
:1048600001028D605A6000F041FA0834204603B01E
:10487000BDE8F08F00240C232046336003B0BDE870
:10488000F08F80234FF0400E3F2049E770465DE7F0
:104890002344E1685A68A56842F00102E9603046A5
:1048A0008D605A6000F022FA0834204603B0BDE85B
:1048B000F08F234430465A6842F001025A6000F0FB
:1048C00015FA0834204603B0BDE8F08FBC68636871
:1048D00023F00308A84504D3C5EB08030F2B00F30E
:1048E0008C80554BDFF860911A68D9F8003001339D
:1048F0002A4404EB080A00F0608102F580520F326E
:1049000022F47F6222F00F0211463046019200F03D
:10491000EFF9B0F1FF3F8346019A00F058818245DC
:1049200000F2FC80454B1968DA451144196000F02B
:104930005381D9F80000DFF810E101301BBFCAEB4A
:104940000B0A5144CEF800B019601BF0070100F0CB
:104950001781C1F10800C1F58051834408315A44E0
:10496000C2F30B02C2EB010949463046019300F045
:10497000BFF9431C019B00F03F81CBEB00024A448E
:1049800042F001021968C7F808B04944BC42CBF8AC
:1049900004201960DFF8A49016D0B8F10F0F40F290
:1049A000FD806268A8F10C0323F00703E01802F011
:1049B00001024FF0050E1A430F2B6260C0F804E0AD
:1049C000C0F808E000F21C811D4BBC681A689142D7
:1049D00088BF19601B4B1A689142626888BF1960D2
:1049E00022F003029542A2EB050301D80F2B04DC51
:1049F000304600F07BF9002438E7621943F00103E8
:104A000045F0010565603046BA60536000F06EF90C
:104A10000834204603B0BDE8F08F142B71D9542B15
:104A200000F2A480280B00F16F0E4FEA4E036E30A7
:104A300076E600BF048CFF1FCCF5FF1FD0F5FF1FEB
:104A4000C8F5FF1FC4F5FF1F1090FF1F5A0A042A64
:104A50005ED9142A00F2B38002F15C0149005B3296
:104A600007EB810C57F82110DFF8DC81ACF1080C62
:104A70008C4500F088804A6822F00302934202D2FB
:104A800089688C45F7D1D1F80CC07A68C4F80CC09D
:104A9000A160CCF80840CC6088E6631942F00107B9
:104AA00045F00105656030464B610B61C3F80CE0D1
:104AB000C3F808E05F609A50083400F017F9D5E6B3
:104AC0004A6873E608F1010818F0030F0CF1080CAE
:104AD0007FF47FAE30E0DC68A34208BF02303FF4D1
:104AE00035AEB3E60B440C465A68C96854F8085F03
:104AF00042F001025A603046E9608D6000F0F6F83D
:104B0000B4E603F15C0E03F15B004FEA4E0307E6E7
:104B10009A0902F1390149003832A1E7BC424A4BF7
:104B20003FF400AF9C68626822F003025AE759F82C
:104B30000839994540F0828010F0030F00F1FF30F2
:104B4000F5D17B6823EA04037B6064009C423FF656
:104B5000BDAE002C3FF4BAAE1C4240467FF435AEE9
:104B600064001C4200F10400FAD02EE6B3F5AA7FDF
:104B700018D8E80B00F1780E4FEA4E037730CFE5F6
:104B80004FF48051EBE60121D8F80430921001FA7D
:104B900002F21A43C8F80420614677E70123CBF8F4
:104BA000043025E740F25452934220D8A80C00F17B
:104BB0007D0E4FEA4E037C30B2E51032A4E6542A53
:104BC00026D81A0B02F16F0149006E3248E7BC6823
:104BD000626822F0030205E7CAF30B0000287FF4A5
:104BE000A8AE4244BB6842F001025A60ECE6FE23E4
:104BF0004FF07F0E7E2093E501224FF00009C1E6C1
:104C000004F10801304600F049F9D9F80010DBE65C
:104C1000B2F5AA7F05D8DA0B02F1780149007732A4
:104C20001EE740F254518A4205D89A0C02F17D01E8
:104C300049007C3214E7FE217E2211E77B6884E77D
:104C4000E808431C5B00F8E5048CFF1F70B4840780
:104C500046D0541E002A41D0CDB2034602E0621E67
:104C6000E4B3144603F8015B9A07F8D1032C2ED95C
:104C7000CDB245EA05250F2C45EA054519D903F1C2
:104C800010022646103E0F2E42F8105C42F80C5CD3
:104C900042F8085C42F8045C02F11002F2D8A4F178
:104CA000100222F00F0204F00F041032032C134400
:104CB0000DD91E462246043A032A46F8045BFAD868
:104CC000221F22F003020432134404F003042CB127
:104CD000C9B21C4403F8011BA342FBD170BC70474E
:104CE00014460346C2E700BF704700BF704700BFCD
:104CF00038B5074C0023054608462360FEF7D4F874
:104D0000431C00D038BD2368002BFBD02B6038BD7E
:104D10000CF6FF1F2DE9F047254C2568D5F84841D2
:104D20000646884692469946C4B360681F2817DC39
:104D3000431C76B104EB80050122C5F888A0D4F8A5
:104D4000881182401143022EC4F88811C5F80891D9
:104D50001ED00230636044F820800020BDE8F08758
:104D6000144B03B34FF4C870FFF7A8FC0446D0B14E
:104D7000D5F84831002780E88800C5F84841384612
:104D80000123C4F88871C4F88C71002EE1D0D1E7FA
:104D9000D4F88C110A43C4F88C21DAE705F5A6741F
:104DA000C5F84841C1E74FF0FF30BDE8F08700BFCC
:104DB00000520000BD460000024B13B1024800F053
:104DC00005B8704700000000D94D000000230146DF
:104DD0001A461846FFF79EBF38B5074D074C2C1BE7
:104DE000A41005D0013C55F8043D9847002CF9D19A
:104DF000BDE8384000F012BA0000000000000000DA
:104E0000F8B5234F0C460646FFF76EFFBB685D689A
:104E100025F00305291B01F6EF7121F47F6121F0D4
:104E20000F01A1F58054B4F5805F07DB0021304607
:104E3000FFF75EFFBB682B44984204D03046FFF773
:104E400055FF0020F8BD61423046FFF751FF0130A9
:104E50000DD0104BBA6819682D1B45F0010530467E
:104E6000091B55601960FFF741FF0120F8BD0021C3
:104E70003046FFF73DFFBA68831A0F2BDEDD064C84
:104E80000449246843F00103001B53600860D5E720
:104E9000048CFF1FD0F5FF1F1090FF1F002945D085
:104EA0002DE9F0410D468046FFF71EFF55F8047CC2
:104EB0006A4927F00103A5F10804E2188E685068DA
:104EC000B24220F0030062D0FE0750600BD455F8C8
:104ED000087CE41B01F1080EA56875453B446FD0C2
:104EE000E768EF60BD6015186D68ED0742D543F0C7
:104EF00001026260E350B3F5007F18D2DB085A1C50
:104F00004D6851F83270A76001209B1000FA03F33E
:104F100001EBC2001D430838E0604D6041F83240AB
:104F2000FC604046BDE8F041FFF7E0BE70475A0A1A
:104F3000042A53D89A0902F139077F0002F1380593
:104F400001EB870051F827204449083890424DD0A2
:104F5000516821F003018B4202D292689042F7D14E
:104F6000D068E060A2608460D4604046BDE8F04153
:104F7000FFF7BCBE95683A4FBD4203443FD0D068AE
:104F8000E86043F0010285606260E350B3E7FF0729
:104F9000034407D455F8082CA41A1344A068E26807
:104FA000C26090602F4A126843F001009342606033
:104FB0008C60B6D32C4B40461968FFF721FFB0E751
:104FC00011184968C90744D49168D268CA6003447B
:104FD00043F0010091606060E350A2E7142A17D803
:104FE00002F15C077F0002F15B05A9E7AA104B689C
:104FF000012505FA02F213434B600246B1E743F084
:1050000001024C610C61E560A5606260E35088E7D5
:10501000542A06D81A0B02F16F077F0002F16E05C1
:105020008EE7B2F5AA7F06D8DA0B02F178077F0087
:1050300002F1770584E740F25450824206D89A0C78
:1050400002F17D077F0002F17C0579E7FE277E25CE
:1050500076E743F001026260E35062E7048CFF1FD1
:105060000C8CFF1F0C90FF1FCCF5FF1F050E0809CD
:105070000D0C06070F0400130393050E08090D0C11
:1050800006070F04FFFFC585848687C4FFFF001352
:1050900003931A9217FFFFFF4008FE4340A004400D
:1050A0004408FE4344A004400018FE4300C00440EE
:1050B0003000FE43309004403400FE4334900440FE
:1050C0001C18FE431CC004401018FE4310C00440CE
:1050D0000818FE4308C004400C18FE430CC00440EE
:1050E0000C10FE430CB004401010FE4310B00440FE
:1050F0001810FE4318B004401C10FE431CB00440BE
:105100001410FE4314B004400418FE4304C00440CD
:105110000010FE4300B004400008FE4300A004401D
:105120000408FE4304A004400C08FE430CA0044005
:105130000808FE4308A004401418FE4314C00440AD
:105140001818FE4318C004400410FE4304B0044085
:105150000810FE4308B004401400FE4314900440BD
:105160004C08FE434CA004400420FE4304D00440FD
:105170002410FE4324B004402010FE4320B004401D
:105180002810FE4328B004402C10FE432CB00440ED
:105190000020FE4300D004404808FE4348A00440DD
:1051A0001000FE4310900440001519150001000086
:1051B0003487FF1F12000000000200006087FF1FFD
:1051C0004300000000030000BC87FF1F0000000038
:1051D000010309044887FF1F0000000002030904BF
:1051E000A487FF1F0000000003030904C087FF1FFE
:1051F00000000000000000000000000000000000AF
:10520000D887FF1FF8B500BFF8BC08BC9E467047A2
:0C521000B94D0000350400001515000029
:04521C00F8B500BF22
:10522000000000003C0000000A040000FFFFFFFF38
:1052300010F6FF1F1201010102000040C016830496
:10524000000201020301000018035400650065001C
:105250006E00730079006400750069006E006F00D5
:1052600009024300020100C03209040000010202E9
:105270000100052400100105240101010424020697
:1052800005240600010705820310004009040100FF
:10529000020A00000007050302400000070584021F
:1052A0004000000016035500530042002000530048
:1052B00065007200690061006C00000004030904CD
:1052C0000C030000000000000000000000000000CF
:1052D000000000000000000000000000C48AFF1F62
:1052E0002C8BFF1F948BFF1F0000000000000000AC
:1052F00000000000000000000000000000000000AE
:10530000000000000000000000000000000000009D
:10531000000000000000000000000000000000008D
:10532000000000000000000000000000000000007D
:10533000000000000000000000000000000000006D
:10534000000000000000000000000000000000005D
:10535000000000000000000000000000000000004D
:10536000000000000000000000000000000000003D
:10537000000000000000000000000000000000002D
:1053800001000000000000000E33CDAB34126DE6CA
:10539000ECDE05000B000000000000000000000033
:1053A00000000000000000000000000000000000FD
:1053B00000000000000000000000000000000000ED
:1053C00000000000000000000000000000000000DD
:1053D00000000000000000000000000000000000CD
:10570000D887FF1F0000000000000000048CFF1F6E
:10571000048CFF1F0C8CFF1F0C8CFF1F148CFF1FB1
:10572000148CFF1F1C8CFF1F1C8CFF1F248CFF1F61
:10573000248CFF1F2C8CFF1F2C8CFF1F348CFF1F11
:10574000348CFF1F3C8CFF1F3C8CFF1F448CFF1FC1
:10575000448CFF1F4C8CFF1F4C8CFF1F548CFF1F71
:10576000548CFF1F5C8CFF1F5C8CFF1F648CFF1F21
:10577000648CFF1F6C8CFF1F6C8CFF1F748CFF1FD1
:10578000748CFF1F7C8CFF1F7C8CFF1F848CFF1F81
:10579000848CFF1F8C8CFF1F8C8CFF1F948CFF1F31
:1057A000948CFF1F9C8CFF1F9C8CFF1FA48CFF1FE1
:1057B000A48CFF1FAC8CFF1FAC8CFF1FB48CFF1F91
:1057C000B48CFF1FBC8CFF1FBC8CFF1FC48CFF1F41
:1057D000C48CFF1FCC8CFF1FCC8CFF1FD48CFF1FF1
:1057E000D48CFF1FDC8CFF1FDC8CFF1FE48CFF1FA1
:1057F000E48CFF1FEC8CFF1FEC8CFF1FF48CFF1F51
:10580000F48CFF1FFC8CFF1FFC8CFF1F048DFF1FFF
:10581000048DFF1F0C8DFF1F0C8DFF1F148DFF1FAC
:10582000148DFF1F1C8DFF1F1C8DFF1F248DFF1F5C
:10583000248DFF1F2C8DFF1F2C8DFF1F348DFF1F0C
:10584000348DFF1F3C8DFF1F3C8DFF1F448DFF1FBC
:10585000448DFF1F4C8DFF1F4C8DFF1F548DFF1F6C
:10586000548DFF1F5C8DFF1F5C8DFF1F648DFF1F1C
:10587000648DFF1F6C8DFF1F6C8DFF1F748DFF1FCC
:10588000748DFF1F7C8DFF1F7C8DFF1F848DFF1F7C
:10589000848DFF1F8C8DFF1F8C8DFF1F948DFF1F2C
:1058A000948DFF1F9C8DFF1F9C8DFF1FA48DFF1FDC
:1058B000A48DFF1FAC8DFF1FAC8DFF1FB48DFF1F8C
:1058C000B48DFF1FBC8DFF1FBC8DFF1FC48DFF1F3C
:1058D000C48DFF1FCC8DFF1FCC8DFF1FD48DFF1FEC
:1058E000D48DFF1FDC8DFF1FDC8DFF1FE48DFF1F9C
:1058F000E48DFF1FEC8DFF1FEC8DFF1FF48DFF1F4C
:10590000F48DFF1FFC8DFF1FFC8DFF1F048EFF1FFA
:10591000048EFF1F0C8EFF1F0C8EFF1F148EFF1FA7
:10592000148EFF1F1C8EFF1F1C8EFF1F248EFF1F57
:10593000248EFF1F2C8EFF1F2C8EFF1F348EFF1F07
:10594000348EFF1F3C8EFF1F3C8EFF1F448EFF1FB7
:10595000448EFF1F4C8EFF1F4C8EFF1F548EFF1F67
:10596000548EFF1F5C8EFF1F5C8EFF1F648EFF1F17
:10597000648EFF1F6C8EFF1F6C8EFF1F748EFF1FC7
:10598000748EFF1F7C8EFF1F7C8EFF1F848EFF1F77
:10599000848EFF1F8C8EFF1F8C8EFF1F948EFF1F27
:1059A000948EFF1F9C8EFF1F9C8EFF1FA48EFF1FD7
:1059B000A48EFF1FAC8EFF1FAC8EFF1FB48EFF1F87
:1059C000B48EFF1FBC8EFF1FBC8EFF1FC48EFF1F37
:1059D000C48EFF1FCC8EFF1FCC8EFF1FD48EFF1FE7
:1059E000D48EFF1FDC8EFF1FDC8EFF1FE48EFF1F97
:1059F000E48EFF1FEC8EFF1FEC8EFF1FF48EFF1F47
:105A0000F48EFF1FFC8EFF1FFC8EFF1F048FFF1FF5
:105A1000048FFF1F0C8FFF1F0C8FFF1F148FFF1FA2
:105A2000148FFF1F1C8FFF1F1C8FFF1F248FFF1F52
:105A3000248FFF1F2C8FFF1F2C8FFF1F348FFF1F02
:105A4000348FFF1F3C8FFF1F3C8FFF1F448FFF1FB2
:105A5000448FFF1F4C8FFF1F4C8FFF1F548FFF1F62
:105A6000548FFF1F5C8FFF1F5C8FFF1F648FFF1F12
:105A7000648FFF1F6C8FFF1F6C8FFF1F748FFF1FC2
:105A8000748FFF1F7C8FFF1F7C8FFF1F848FFF1F72
:105A9000848FFF1F8C8FFF1F8C8FFF1F948FFF1F22
:105AA000948FFF1F9C8FFF1F9C8FFF1FA48FFF1FD2
:105AB000A48FFF1FAC8FFF1FAC8FFF1FB48FFF1F82
:105AC000B48FFF1FBC8FFF1FBC8FFF1FC48FFF1F32
:105AD000C48FFF1FCC8FFF1FCC8FFF1FD48FFF1FE2
:105AE000D48FFF1FDC8FFF1FDC8FFF1FE48FFF1F92
:105AF000E48FFF1FEC8FFF1FEC8FFF1FF48FFF1F42
:105B0000F48FFF1FFC8FFF1FFC8FFF1F00000200A0
:045B1000FFFFFFFF95
:00000001FF
