:100000000C9435000C945D000C945D000C945D0024
:100010000C945D000C945D000C945D000C945D00EC
:100020000C945D000C945D000C945D000C945D00DC
:100030000C945D000C945D000C945D000C945D00CC
:100040000C941F050C945D000C945D000C945D00F5
:100050000C945D000C945D000C945D000C945D00AC
:100060000C945D000C945D00B50511241FBECFEF0C
:10007000D8E0DEBFCDBF11E0A0E0B1E0E8E9F0E1FB
:1000800002C005900D92A430B107D9F726E0A4E094
:10009000B1E001C01D92AE35B207E1F710E0C5E353
:1000A000D0E004C02197FE010E944408C433D10768
:1000B000C9F70E9469050C944A080C9400008E3020
:1000C00008F08E508770806480937C0080917A0065
:1000D000806480937A0080917A0086FDFCCF8091C5
:1000E00078002091790090E0922B08950895569A17
:1000F0005E9808954F925F926F927F928F929F9237
:10010000AF92BF92CF92DF92EF92FF920F931F9325
:10011000CF93DF9300D000D0CDB7DEB749835A83A9
:100120006B837C83280139018C01000F111F000FA4
:10013000111FF801EC5BFA4F408351836283738394
:10014000F801EC5CFB4F4082518262827382F801BD
:10015000EC5DFC4FC082D182E282F382F801EC5E5A
:10016000FD4F80829182A282B38220E030E0A9011B
:10017000C301B2010E94D20720E030E040E05FE31B
:1001800087FD79C0C301B2010E9479060E94EA0688
:10019000F801EC5FFE4F608320E030E0A901698147
:1001A0007A818B819C810E94D20720E030E040E080
:1001B0005FE387FD59C069817A818B819C810E94B0
:1001C00079060E94EA06F801EC5FFE4F618320E0A9
:1001D00030E0A901C701B6010E94D20720E030E05B
:1001E00040E05FE387FD3BC0C701B6010E9479068E
:1001F0000E94EA06F801EC5FFE4F628320E030E0E7
:10020000A901C501B4010E94D20720E030E040E01E
:100210005FE387FD1FC0C501B4010E9479060E94FB
:10022000EA06F801EC5FFE4F63830F900F900F908A
:100230000F90DF91CF911F910F91FF90EF90DF9082
:10024000CF90BF90AF909F908F907F906F905F9076
:100250004F900895C501B4010E947806E0CFC70110
:10026000B6010E947806C4CF69817A818B819C8116
:100270000E947806A6CFC301B2010E94780686CFFD
:100280000895CF93DF9300D000D0CDB7DEB7161618
:100290001706180619067CF49B01AC0169833A83A2
:1002A0004B835C830E94070629813A814B815C81E4
:1002B0000E94150603C060E070E0CB010F900F9024
:1002C0000F900F90DF91CF91089561157105810511
:1002D000910511F00C940C0608952F923F924F92C5
:1002E0005F926F927F928F929F92AF92BF92CF92C6
:1002F000DF92EF92FF920F931F93CF93DF93CDB7CF
:10030000DEB7A8970FB6F894DEBF0FBECDBF62E090
:1003100070E080E090E00E944101672B682B692B20
:1003200009F0D6C128E830E03E872D87212C312CFA
:100330002114310409F423C194E42916310409F489
:100340001EC1A4E42A1631040CF4C7C1E8E8F0E0A9
:10035000E219F309F8A7EFA38BA09CA0ADA0BEA063
:10036000CF8CD8A0E9A0FAA00B8D1C8D2D8D3E8DD1
:100370004F89588D698D7A8D8FA198A50E947A003A
:100380002FA138A52F5F3F4F3E832D838FA198A5C6
:1003900001979C878B878FA198A5880F991F880F3D
:1003A000991FDC01AC5EBD4FB88BAF87FC01EC5DE3
:1003B000FC4FFA8BE98B9C012C5C3B4F3C8B2B8BCD
:1003C000DC01AC5BBA4FBE8BAD8B1C821B821A82E8
:1003D0001982E3E4F0E0FA87E98778C0AB85BC8551
:1003E000B7FD4EC023E333E343E35FE3EF85F889D2
:1003F0008B819C81E80FF91F6081718182819381DB
:100400000E94D7074B015C0126E636E646E65FE32D
:10041000E989FA89AB81BC81EA0FFB1F6081718198
:10042000828193810E94D7076B017C012AE939E917
:1004300049E15FE3EB89FC898B819C81E80FF91F1F
:1004400060817181828193810E94D7072B013C01D9
:100450002DEC3CEC4CEC5EE3ED89FE89AB81BC817C
:10046000EA0FFB1F60817181828193810E94D7070F
:10047000AB01BC01930182018B859C850E947A00AF
:10048000EFA1F8A529853A85E217F30724F1E9855C
:10049000FA853197FA87E98729813A812C5F3F4FA6
:1004A0003A8329838D819E8101969E838D83AB81C2
:1004B000BC811497BC83AB83EB85FC853197FC87AB
:1004C000EB8729853A85232B09F40AC12FA138A58A
:1004D000232B09F083CF8D819E8184349105BCF656
:1004E00023E333E343E35FE3EF85F88989819A816E
:1004F000E80FF91F60817181828193810E94D70783
:100500004B015C0126E636E646E65FE3E989FA89B7
:10051000A981BA81EA0FFB1F608171818281938179
:100520000E94D7076B017C012AE939E949E15FE3C1
:10053000EB89FC8989819A81E80FF91F60817181BB
:10054000828193810E94D7072B013C012DEC3CEC6A
:100550004CEC5EE3ED89FE89A981BA81EA0FFB1FAD
:1005600060817181828193810E94D707AB01BC01B8
:10057000930182018D819E810E947A0088CF8FE055
:100580000E945F008C0180E10E945F00080F191F2C
:1005900081E10E945F00080F191F82E10E945F0045
:1005A000080F191F83E10E945F00800F911FBC019B
:1005B000990F880B990B0E94650160E071E080E063
:1005C00090E00E9441010E9422076F8B788F898FF3
:1005D0009A8F8FE00E945F008C0180E10E945F0093
:1005E000080F191F81E10E945F00080F191F82E1A7
:1005F0000E945F00080F191F83E10E945F00800FB7
:10060000911FBC01990F880B990B0E94650160E056
:1006100071E080E090E00E9441010E9422076B8F10
:100620007C8F8D8F9E8F8FE00E945F008C0180E118
:100630000E945F00080F191F81E10E945F00080FF0
:10064000191F82E10E945F00080F191F83E10E94B9
:100650005F00800F911FBC01990F880B990B0E94BE
:10066000650160E071E080E090E00E9441010E943D
:1006700022076F8F78A389A39AA38FE00E945F005F
:100680008C0180E10E945F00080F191F81E10E9428
:100690005F00080F191F82E10E945F00080F191FF9
:1006A00083E10E945F00800F911FBC01990F880BAE
:1006B000990B0E94650160E071E080E090E00E948B
:1006C00041010E9422076BA37CA38DA39EA339CE78
:1006D00084E490E09E878D8729CE38A62FA23CCE59
:1006E0000BE011E088E192E09A838983A8E4B5E009
:1006F000BC87AB87E8E2F3E0FA87E98728E334E0D8
:100700003C832B83BBC0AB81BC81CD90DD90ED9051
:10071000FC90A985BA858D919D910D90BC91A02DDD
:100720008D839E83AF83B88720E030E040E251E4C0
:10073000BC01CD010E94E506E981FA8180809180AB
:10074000A280B38087FFD5C020E030E040E251E4D2
:10075000C501B4010E94E50687FFCBC020E030E070
:1007600040E251E4C701B6010E94E50687FDFBC0E7
:10077000EB85FC85408051806280738020E030E012
:1007800040E85FE3C501B4010E94E50687FDBDC0F6
:1007900020E030E0A901C701B6010E94D20720E0A5
:1007A00030E040E05FE387FDABC0C701B6010E94C7
:1007B00079060E94EA06F8013397608320E030E072
:1007C000A901C301B2010E94D20720E030E040E05D
:1007D0005FE387FDB3C0C301B2010E9479060E94A6
:1007E000EA06F8013297608320E030E0A9016D81CC
:1007F0007E818F8198850E94D20720E030E040E022
:100800005FE387FD94C06D817E818F8198850E9412
:1008100079060E94EA06F8013197608320E030E013
:10082000A901C501B4010E94D20720E030E040E0F8
:100830005FE387FD77C0C501B4010E9479060E947D
:10084000EA06D8016C930C5F1F4FE981FA81349658
:10085000FA83E9832B853C852C5F3F4F3C872B87B0
:1008600089859A8504969A878987AB81BC8114967D
:10087000BC83AB83E452F34009F494C062E070E0BF
:1008800080E090E00E944101672B682B692B09F4FE
:100890003ACF20E030E040E050E4EB85FC85608119
:1008A0007181828193810E94E50687FD4CC0EB81B6
:1008B000FC81C080D180E280F38020E030E040E025
:1008C00050E4C701B6010E94E50687FF22CF62E02F
:1008D00070E080E090E00E9441010E9422076B01DD
:1008E0007C01AB81BC816D937D938D939C93139719
:1008F00010CFAB85BC854D905D906D907C903ECFC8
:10090000C701B6010E94780654CF80E090E0A0E8CD
:10091000BFE3E981FA8180839183A283B3834C0191
:100920005D0136CFC501B4010E94780688CF6D8184
:100930007E818F8198850E9478066BCFC301B201BA
:100940000E9478064CCF62E070E080E090E00E9468
:1009500041010E942207AB85BC856D937D938D93E9
:100960009C931397A4CFAB85BC854D905D906D9003
:100970007C9020E030E040E251E4C301B2010E94EB
:10098000E50687FFFBCE80E090E0A0E2B1E4E985D8
:10099000FA8580839183A283B3838D839E83AF8303
:1009A000B887ECCE60E470E0AFB7F894E8E6F1E029
:1009B000419150E087E090E007C026E02A95F1F7EA
:1009C0005E9800C0019788F09A01082E02C0359504
:1009D00027950A94E2F75E9A20FDEFCF00C05E985B
:1009E00036E03A95F1F7019778F721E0E03BF2071E
:1009F000F9F6AFBF61507109B9F63FEF231A330A18
:100A00008D859E852816390609F092CCA8960FB6DA
:100A1000F894DEBF0FBECDBFDF91CF911F910F9134
:100A2000FF90EF90DF90CF90BF90AF909F908F900E
:100A30007F906F905F904F903F902F9008951F92FE
:100A40000F920FB60F9211242F933F938F939F9382
:100A5000AF93BF9380915A0690915B06A0915C067C
:100A6000B0915D063091590623E0230F2D3720F415
:100A70000196A11DB11D05C026E8230F0296A11DF8
:100A8000B11D2093590680935A0690935B06A0935C
:100A90005C06B0935D068091550690915606A09134
:100AA0005706B09158060196A11DB11D80935506B9
:100AB00090935606A0935706B0935806BF91AF91F6
:100AC0009F918F913F912F910F900FBE0F901F908C
:100AD0001895789484B5826084BD84B5816084BDA6
:100AE00085B5826085BD85B5816085BD80916E00CC
:100AF000816080936E0010928100809181008260FD
:100B00008093810080918100816080938100809139
:100B100080008160809380008091B1008460809328
:100B2000B1008091B00081608093B00080917A0024
:100B3000846080937A0080917A00826080937A004A
:100B400080917A00816080937A0080917A00806839
:100B500080937A001092C100C0E0D0E00E946D0145
:100B60002097E1F30E940000F9CF84E596E00C9411
:100B700077008F929F92AF92BF92CF92DF92EF92C7
:100B8000FF92CF93DF93EC01688179818A819B8109
:100B9000611571058105910521F464E279ED8BE51C
:100BA00097E02DE133EF41E050E00E941506490146
:100BB0005A019B01AC01A7EAB1E40E9434066B0123
:100BC0007C01ACEEB4EFA50194010E944206DC0169
:100BD000CB018C0D9D1DAE1DBF1DB7FF03C001973E
:100BE000A109B04888839983AA83BB83BC01CD0146
:100BF0009F77DF91CF91FF90EF90DF90CF90BF90E4
:100C0000AF909F908F9008950E94B905089580E05D
:100C100091E00E94B905089560930001709301016D
:100C200080930201909303010895052E97FB1EF413
:100C300000940E942C0657FD07D00E94470607FC2F
:100C400003D04EF40C942C06509540953095219588
:100C50003F4F4F4F5F4F08959095809570956195E8
:100C60007F4F8F4F9F4F08950E946906A59F900D5B
:100C7000B49F900DA49F800D911D11240895B7FF7E
:100C80000C9434060E943406821B930B0895A1E253
:100C90001A2EAA1BBB1BFD010DC0AA1FBB1FEE1FF6
:100CA000FF1FA217B307E407F50720F0A21BB30B41
:100CB000E40BF50B661F771F881F991F1A9469F7BD
:100CC00060957095809590959B01AC01BD01CF0119
:100CD0000895A29FB001B39FC001A39F700D811D15
:100CE0001124911DB29F700D811D1124911D089535
:100CF0005058BB27AA270E9490060C9498070E9480
:100D00008A0738F00E94910720F039F49F3F19F4C8
:100D100026F40C9487070EF4E095E7FB0C9481070A
:100D2000E92F0E94A90758F3BA17620773078407CF
:100D3000950720F079F4A6F50C94CB070EF4E09516
:100D40000B2EBA2FA02D0B01B90190010C01CA0185
:100D5000A0011124FF27591B99F0593F50F4503E30
:100D600068F11A16F040A22F232F342F4427585F22
:100D7000F3CF469537952795A795F0405395C9F73A
:100D80007EF41F16BA0B620B730B840BBAF09150F2
:100D9000A1F0FF0FBB1F661F771F881FC2F70EC091
:100DA000BA0F621F731F841F48F487957795679564
:100DB000B795F7959E3F08F0B0CF9395880F08F050
:100DC0009927EE0F9795879508950E945D0708F47F
:100DD00081E008950E94F1066894B1110C94CC074B
:100DE00008950E94B10788F09F5798F0B92F99276E
:100DF000B751B0F0E1F0660F771F881F991F1AF006
:100E0000BA95C9F714C0B13091F00E94CB07B1E098
:100E100008950C94CB07672F782F8827B85F39F097
:100E2000B93FCCF3869577956795B395D9F73EF49E
:100E300090958095709561957F4F8F4F9F4F089546
:100E4000E89409C097FB3EF4909580957095619564
:100E50007F4F8F4F9F4F9923A9F0F92F96E9BB271A
:100E60009395F695879577956795B795F111F8CF96
:100E7000FAF4BB0F11F460FF1BC06F5F7F4F8F4F01
:100E80009F4F16C0882311F096E911C0772321F0F7
:100E90009EE8872F762F05C0662371F096E8862F8F
:100EA00070E060E02AF09A95660F771F881FDAF7E6
:100EB000880F9695879597F90895990F0008550F13
:100EC000AA0BE0E8FEEF16161706E807F907C0F0D0
:100ED00012161306E407F50798F0621B730B840BD8
:100EE000950B39F40A2661F0232B242B252B21F4B2
:100EF00008950A2609F4A140A6958FEF811D811D52
:100F0000089597F99F6780E870E060E008959FEF8B
:100F100080EC089500240A94161617061806090690
:100F2000089500240A94121613061406050608955F
:100F3000092E0394000C11F4882352F0BB0F40F4E7
:100F4000BF2B11F460FF04C06F5F7F4F8F4F9F4F27
:100F5000089557FD9058440F551F59F05F3F71F0A9
:100F60004795880F97FB991F61F09F3F79F0879510
:100F70000895121613061406551FF2CF4695F1DF99
:100F800008C0161617061806991FF1CF8695710529
:100F9000610508940895E894BB2766277727CB015D
:100FA00097F908950E945D0708F48FEF08950E9455
:100FB000EA070C9498070E948A0738F00E9491076C
:100FC00020F0952311F00C9481070C9487071124CD
:100FD0000C94CC070E94A90770F3959FC1F3950F5D
:100FE00050E0551F629FF001729FBB27F00DB11DAD
:100FF000639FAA27F00DB11DAA1F649F6627B00D3D
:10100000A11D661F829F2227B00DA11D621F739F25
:10101000B00DA11D621F839FA00D611D221F749F33
:101020003327A00D611D231F849F600D211D822F7A
:10103000762F6A2F11249F5750409AF0F1F08823A1
:101040004AF0EE0FFF1FBB1F661F771F881F9150CE
:101050005040A9F79E3F510580F00C9481070C94F5
:10106000CC075F3FE4F3983ED4F386957795679578
:10107000B795F795E7959F5FC1F7FE2B880F911DF8
:101080009695879597F90895EE0FFF1F0590F491B7
:08109000E02D0994F894FFCF54
:041098000100000053
:107E0000112484B714BE81FFF0D085E080938100F7
:107E100082E08093C00088E18093C10086E0809377
:107E2000C20080E18093C4008EE0C9D0259A86E02C
:107E300020E33CEF91E0309385002093840096BBD3
:107E4000B09BFECF1D9AA8958150A9F7CC24DD24C4
:107E500088248394B5E0AB2EA1E19A2EF3E0BF2EE7
:107E6000A2D0813461F49FD0082FAFD0023811F036
:107E7000013811F484E001C083E08DD089C08234E0
:107E800011F484E103C0853419F485E0A6D080C0E4
:107E9000853579F488D0E82EFF2485D0082F10E0AE
:107EA000102F00270E291F29000F111F8ED06801E7
:107EB0006FC0863521F484E090D080E0DECF843638
:107EC00009F040C070D06FD0082F6DD080E0C81688
:107ED00080E7D80618F4F601B7BEE895C0E0D1E017
:107EE00062D089930C17E1F7F0E0CF16F0E7DF06D8
:107EF00018F0F601B7BEE89568D007B600FCFDCFD4
:107F0000A601A0E0B1E02C9130E011968C91119780
:107F100090E0982F8827822B932B1296FA010C0160
:107F200087BEE89511244E5F5F4FF1E0A038BF0790
:107F300051F7F601A7BEE89507B600FCFDCF97BE46
:107F4000E89526C08437B1F42ED02DD0F82E2BD052
:107F50003CD0F601EF2C8F010F5F1F4F84911BD097
:107F6000EA94F801C1F70894C11CD11CFA94CF0C13
:107F7000D11C0EC0853739F428D08EE10CD085E9AC
:107F80000AD08FE07ACF813511F488E018D01DD067
:107F900080E101D065CF982F8091C00085FFFCCF94
:107FA0009093C60008958091C00087FFFCCF809118
:107FB000C00084FD01C0A8958091C6000895E0E648
:107FC000F0E098E1908380830895EDDF803219F02E
:107FD00088E0F5DFFFCF84E1DECF1F93182FE3DFCA
:107FE0001150E9F7F2DF1F91089580E0E8DFEE27F6
:047FF000FF270994CA
:027FFE00040479
:0400000300007E007B
:00000001FF