:1000000000800020BD01000009320000C131000065
:10001000C1310000C1310000C1310000C131000018
:10002000C1310000C1310000C131000009320000BF
:1000300009320000C131000059370000A939000021
:1000400009320000093200000932000009320000C4
:1000500009320000093200000932000009320000B4
:1000600009320000093200000932000009320000A4
:100070000932000009320000093200000932000094
:100080000932000009320000093200000932000084
:100090000932000009320000093200000932000074
:1000A0000932000009320000093200000932000064
:1000B0000932000009320000093200000932000054
:1000C0000932000009320000093200000932000044
:1000D0000932000009320000093200000932000034
:1000E0000932000009320000093200000932000024
:1000F00009320000B932000009320000E533000087
:1001000009320000113500000932000009320000F8
:1001100009320000093200000932000009320000F3
:1001200009320000093200000932000009320000E3
:1001300009320000093200000932000009320000D3
:1001400009320000093200000932000009320000C3
:1001500009320000093200000932000009320000B3
:100160000932000079200000093200000932000045
:100170000932000009320000093200000932000093
:100180000932000009320000093200000932000083
:100190000932000009320000093200000932000073
:1001A0000932000009320000093200000932000063
:1001B000093200000932000009320000564B4CF2AF
:1001C000205210B51A804DF628121A8000BF00BFC9
:1001D00003F01EF8514B4FF010621A60504A9A60BB
:1001E000504ADA60504A136813F4807304D14F49BF
:1001F0000B604FF4A85313604D4B1A78110703D5C9
:100200001A7842F008021A704A4B4B492A221A7097
:100210004A4A4B4B8B4204D252F8040F43F8040B6A
:10022000F8E7484B484900228B4202D243F8042B9E
:10023000FAE74649464A002352F8230041F82300D2
:1002400001336F2BF8D1434B434A802103F8011B44
:100250009342FBD1414B3D4A1A60414B8A221A70AE
:10026000A3F5805324225A70A0221A709A7992071B
:10027000FCD59A79D406FCD43A4A937903F00C035E
:10028000082B384BF9D103221A7146225A719A79F8
:100290009006FCD5334A9179324B4906FBD5324A58
:1002A0004FF0827111600921516020221A709A79F1
:1002B00002F00C020C2AFAD12C4B2D4A1A602D4B5D
:1002C0002D4A1A6000225A60072243F8042C2B4A58
:1002D000C3F80C2D62B601F07FFC144B1B68DA07E3
:1002E00005D5274801F066FC264B274A1A60274BA4
:1002F0001B785B0609D5234C234B22689A4204D114
:100300001F4801F057FC0023236006F07FFE02F037
:1003100085FF02F077FEFEE70E20054030800440A6
:10032000823F04000100002B10D0034014D0034092
:1003300002D0074000E007407490FF1F447E000099
:100340002087FF1F7890FF1F8C98FF1F0082FF1FE0
:100350000000000000E400E05FE400E008ED00E0E1
:1003600000500640004006404480044004800440A1
:10037000C010050014E000E0BFD401000000202000
:10038000199D1F011CE00340A5C3945A00F00740CB
:10039000FFFFFFFFFFFFFFFFFFFFFFFFFFFFFFFF6D
:1003A000FFFFFFFFFFFFFFFFFFFFFFFFFFFFFFFF5D
:1003B000FFFFFFFFFFFFFFFFFFFFFFFFFFFFFFFF4D
:1003C000FFFFFFFFFFFFFFFFFFFFFFFFFFFFFFFF3D
:1003D000FFFFFFFFFFFFFFFFFFFFFFFFFFFFFFFF2D
:1003E000FFFFFFFFFFFFFFFFFFFFFFFFFFFFFFFF1D
:1003F000FFFFFFFFFFFFFFFFFFFFFFFFFFFFFFFF0D
:10040000FFFFFFFFFFFFFFFFFFFFFFFFDEF9FFFF23
:1004100010B5054C237833B9044B13B10448AFF33E
:1004200000800123237010BD7890FF1F00000000A2
:10043000487E0000084B10B51BB108490848AFF3CF
:1004400000800848036803B910BD074B002BFBD0A0
:10045000BDE81040184700BF000000007C90FF1F5F
:10046000487E00007490FF1F00000000364B2DE90D
:10047000F041364ED3F80080354600240127C4EB06
:10048000C40006EBC00001343822002107F0AEF8AA
:10049000142C6F70C5F8088005F13805EFD121469E
:1004A0002B482C4D2C4F2D4E02F058FC2C4802F0BE
:1004B000C5FD0E2001F000FB04460F2001F0FCFA00
:1004C00000FB04F4102001F0F7FA00FB04F4112003
:1004D00001F0F2FA00FB04F002F0E8FD07F0D8F8B2
:1004E00006F00AFB4FF0405106F05AFB1D4906F09A
:1004F00057FB3860284601F0EDF86B6833602846FA
:10050000194D002101F09CF92F46002332686878CC
:10051000D1184C7884420DD8D05C3A78904209D8F2
:100520008878BA78904205D8C878FA7890429CBF0B
:10053000386808600433B3F5B45FE7D10548BDE817
:10054000F04101F0D9B800BF3087FF1FD890FF1FDE
:100550004C7A0000BC90FF1FB890FF1F7495FF1FDE
:100560007C87FF1F0000B4437895FF1F2DE9F04FF3
:10057000454C237885B0A3B1444B454A1B68019391
:10058000019B12689B1AB3F5FA7F0AD302F080FB35
:100590000028FBDA3F4A00231360237005B0BDE852
:1005A000F08F02F0B1FB0028F8D02378364A3BB92F
:1005B0003649374B0968029102991960012313707B
:1005C000DFF8D0A0DAF80030002B45D0324B1B7892
:1005D000412B4BD0422B50D0432B27D1DFF8AC908E
:1005E000DFF8C4802D4E0BE002F052FB07F80B0041
:1005F000DAF800300133B3F5B46FCAF800301FDA0F
:1006000002F082FB234D0028C8D0DAF800303768AA
:10061000012B03F1FF3BE7D1D9F800300393039B93
:100620001F4AC8F8003000231370DDE7002002F0F5
:1006300069FC02F097FC0023CAF800302370ADE794
:10064000184801F059F8012002F05CFC02F08AFC25
:1006500000232B602370D3E702F01AFBDAF8003096
:100660000D4A01331070CAF8003097E701230C4A95
:100670001846137002F046FCDBE7094B002201200C
:100680001A7002F03FFCD4E76095FF1F9095FF1FA2
:100690006895FF1F3895FF1F5495FF1F7495FF1F26
:1006A0006887FF1FBC90FF1F5C95FF1F2DE9F04F6F
:1006B00085B00E4614461D4605F0E8FD0022BB4BF2
:1006C00003F0CAF906F00EF9B94906F069FAB9491A
:1006D00006F01AFB00210746304606F01DFC0028F4
:1006E00000F07F814FF07E51304606F0F7FB002886
:1006F00040F093814FF0000A4FF07E5600212046D3
:1007000006F00AFC002800F076814FF07E5120466A
:1007100006F0E4FB08B94FF07E54A749384606F0CE
:10072000DDFB8346002800F09080384605F0AEFDE2
:1007300003F048F980468946A048394606F026F974
:1007400005F0A4FD03F03EF902460B463046214673
:10075000CDE9002306F024FA994906F0D5FA494676
:100760000646404606F0BEF8DDE9002380461946FD
:10077000104606F0B7F80146404606F0C5FA4FF0BD
:100780007E51804606F004F9314606F009FA5146DA
:100790008146204606F004FA414604464FF07E505A
:1007A00006F0F4F84FF07E5106F0F2F8314606F00C
:1007B000F7F9844906F0F4F9002780468149484654
:1007C00006F0EEF90021064606F09CFB002800F03A
:1007D00094804FF07C51304606F0DAF806F0A6FB24
:1007E00028600021404606F08DFB002800F00D81B6
:1007F0004FF07C51404606F0CBF806F097FB68605E
:100800000021384606F07EFB002800F0F6804FF00D
:100810007C51384606F0BCF806F088FBA8606949B0
:10082000204606F0BDF90021044606F06BFB0028C7
:1008300000F0CC804FF07C51204606F0A9F806F07D
:1008400075FBE86005B0BDE8F08F5F49384606F0FB
:1008500045FB002859D03846574906F097F8074617
:1008600005F014FD03F0AEF880468946534839463A
:1008700006F08CF805F00AFD03F0A4F802460B46DA
:1008800030462146CDE9002306F08AF94C4906F0AE
:100890003BFA49460646404606F024F8DDE90023C7
:1008A00007461946104606F01DF80146384606F080
:1008B0002BFA51460746204606F072F94FF07E515A
:1008C0000446384606F064F8314606F069F93D49B9
:1008D00006F066F9394680464FF07E5006F056F82D
:1008E0004FF07E5106F054F8314606F059F935497B
:1008F00006F056F90746584672E74FF07C513046ED
:1009000006F044F806F012FB6AE738462E4906F076
:100910003DF8074605F0BAFC03F054F802460B46D2
:1009200026483946CDE9022306F030F805F0AEFC42
:1009300003F048F8CDE900012146304606F030F9D1
:100940001F4906F0E1F9DDE9022306461946104683
:1009500005F0C8FF0746DDE9000105F0C3FF0146C9
:10096000384606F0D1F9074601464FF07E5006F0B2
:100970000DF84FF07E5106F00BF8314606F010F9F5
:1009800051468146204606F00BF94FF07E51044651
:10099000384605F0FDFF314606F002F9094906F038
:1009A000FFF84FF00008074608E700BF00807640D8
:1009B000D00F4940000034437C0A06408A0A863F33
:1009C0000000404000007F438B0A86404FF07C517E
:1009D000204605F0DBFF06F0A9FAE86005B0BDE8A7
:1009E000F08F002120464FF07E5A002606F094FA40
:1009F00000287FF48AAE00248FE64FF07C51384601
:100A000005F0C4FF06F092FA08E74FF07C5140462B
:100A100005F0BCFF06F08AFAF1E631464FF07E5051
:100A200005F0B4FF824669E62DE9F04F8DB0C300B2
:100A30001D1A0793BA4B069003EBC505AC78002C42
:100A400000F09E80012C04D0002318460DB0BDE8B4
:100A5000F08F069A079B9D1AB14B03EBC505D5F89D
:100A600008A06C68504606F047F84FF07C5106F03D
:100A700097F805F00BFC06460F465046CDE9006797
:100A800005F0F2FB32463B4605F0A0FA5445CDE9AD
:100A9000020100F3FF80A34B05951B680493A5009A
:100AA00051E04046494605F093FA05F0F3FE8346CF
:100AB0008BEAEB70A0EBEB7005F0D6FBDDE90223CF
:100AC00005F062FD32463B4680468946DDE900017D
:100AD00005F0ACFE32463B4630B1DDE9000105F0E1
:100AE000AFFE002840F0EA8032463B46DDE90001D7
:100AF00005F088FE424606464B46002840F0DE8060
:100B0000BBF1000F4FF00000874980F21F8105F014
:100B10005DFA02460B4605F00DFC05F0E3FE049974
:100B2000074606F0E5F9002800F02D81059B1A6BB9
:100B300001345319A2455E7056559E70DE7005F162
:100B40000405C0F2A780204605F08EFBDDE90023F6
:100B500006460F4605F03AFA0022002380468946F1
:100B600005F06EFE0022714B00289AD100226F4BD7
:100B70004046494605F02AFA05F08CFE834697E781
:100B80006B4B1868404205F06FFBC5E906010E206B
:100B900000F092FF06460F2000F08EFF00FB06F6E5
:100BA000102000F089FF00FB06F6112000F084FF02
:100BB00000FB06F002F07AFA06F06AFD05F054FB3D
:100BC00055A3D3E9002305F0DFFC0022594B05F0C3
:100BD000B1FBC5E90801089409940A940B9405F047
:100BE00081FE4FF07E52114608ABFFF75FFD524980
:100BF0000A9A0B9B0898099C85F82A2085F82900F9
:100C000085F82840D1E9000185F82B3005F042FE37
:100C10004A4B0446D3E9000105F03CFE214602F0B0
:100C20004BFA05F021FB464BC5E90401D3E900234B
:100C300005F080FB0022002304460D4605F000FE6F
:100C4000002800F0B08029460022384B204605F0ED
:100C5000BFF905F01FFE0546079B069A9C1A304B0C
:100C600003EBC40494F82C3053B1079B9B1A2C4A15
:100C700002EBC3039C789D600134E4B29C70E1E612
:100C8000681C800006F0EAF90123206384F82C3008
:100C9000069AEAE7079B069A9C1A214B294A03EB1E
:100CA000C4040023A37063606370137001F0E8F85C
:100CB0000123E06018460DB0BDE8F08F069A079B4F
:100CC000214D9E1A164B03EBC606D6E9080105F026
:100CD00009FE4FF07E522B461146FFF7E7FC326BC0
:100CE000296802EB84035970696802F82410AA6825
:100CF0009A70EA68DA70069A079B9B1A084A02EB18
:100D0000C30301349A689442C4DC5C600023184633
:100D10000DB0BDE8F08F00BF0000C0FFFFFFDF4156
:100D2000D890FF1F6C87FF1F0000F03F0000E03FDE
:100D30003087FF1F008076406087FF1F4087FF1FBE
:100D40004095FF1F9490FF1FA890FF1FD3D04246ED
:100D50004B46002019491A4D05F038F90022194B6D
:100D600002F0DCFE05F0BEFD069A079B9E1A164BAC
:100D700003EBC6060746D6E9080105F0B3FD2B468E
:100D80003A461249A9E7069A079B0D4D9E1A0E4B4B
:100D900003EBC606D6E9080105F0A4FD2B463A464A
:100DA0004FF07E5199E729460022094B204605F075
:100DB0000DF905F06FFD05464EE700BF0000F03F5E
:100DC000A890FF1F00004E40D890FF1FA4707D3FE9
:100DD0000000E03FFFFFFFFF2DE9F04F904E914DE7
:100DE0003068914C83B04FF4B452002106F0FEFB02
:100DF00000220023CDE900232F464FF0000A14F80B
:100E0000203C002B7DD014F81F8CB8F1000F00F0AF
:100E1000CC80D4E90023DDE9000105F0D9F854E9DC
:100E20000289CDE9000100220023404649460AF12B
:100E3000010A05F005FD002800F0A88000227B4B88
:100E40004046494605F0C4F805F024FD54F8182C36
:100E5000D31C56DB4FEA80090023C118B1F5B46FEB
:100E600046D2216995F801E001EB830B9BF801C0A4
:100E7000F4450ED811F823E039788E4509D89BF84F
:100E800002E0B9788E4504D89BF803E0F9788E45E6
:100E90002ED9D6F800E00EEB09021EF809E05178D1
:100EA00092F802C092F8038049B9BEF1000F06D152
:100EB000BCF1000F03D1B8F1000F70D0E64694F8F2
:100EC00009B0594449105170217A8E444FEA6E0E90
:100ED00082F800E0A17A8C444FEA6C0C82F802C0E0
:100EE000E17A88444FEA680882F8038054F8182CA5
:100EF00002EBD271491001330131994209F1040921
:100F0000ABDA4B4B38349C427FF479AF454F00232A
:100F100032686878D1184C7884420DD8D05C3A7821
:100F2000904209D88878BA78904205D8C878FA787B
:100F300090429CBF386808600433B3F5B45FE7D1D2
:100F4000BAF1000F1FD0504605F08EF902460B464D
:100F5000DDE9000105F018FB2DA3D3E9002305F01E
:100F6000E9F9344C06460F462068334905F018FE6F
:100F700005F08CF902460B463046394605F028F854
:100F800005F0B0FC206003B0BDE8F08F0022274BD5
:100F90004046494605F01AF805F07CFC56E7DBF8B8
:100FA0000010116054F8182CA2E700F069FF814688
:100FB00054F8140CC0EB090005F046F916A3D3E968
:100FC000002305F0E1FA54E9042305F0B3F954E9EC
:100FD000022304F0FDFF0022184B44F8149C44E95E
:100FE000020105F02DFC00283FF413AF206906F044
:100FF0003DF8134A84F80C80136804F8208C013BF8
:101000000121136004F81F1C03E700BFAFF3008049
:10101000000000805634323F0000000080842E41E2
:101020007495FF1F7895FF1FF890FF1F0000E03FA9
:101030005895FF1FB890FF1FCCED7F3F0080964072
:101040008495FF1FFFFFFFFF2DE9F04F0E2085B0B5
:1010500000F032FD04460F2000F02EFD00FB04F4EA
:10106000102000F029FD00FB04F4112000F024FD05
:1010700000FB04F002F01AF80221002002F01CF834
:10108000002840F0948006F003FB8B4E05F034FD01
:101090004FF0405105F084FD316805F079FC0221E4
:1010A0003060002002F008F8002840F0958006F03B
:1010B000EFFA05F021FD4FF0405105F071FD7F4F33
:1010C0007F4905F06DFD05F0E1F8D7E9002304F054
:1010D0007FFFC7E900010221002001F0EDFF002899
:1010E00040F0978006F0D4FA05F006FDDFF8E8A19D
:1010F0004FF0405105F054FD714905F051FDDAF80B
:10110000001005F045FC0546CAF8000034686D493A
:10111000DFF8A481204605F0FFFE002800F09A8049
:101120002146684805F032FC0446C8F80000D7E9BB
:101130000089654FDFF884B10026404649463246B3
:101140003B4605F087FB002800F09780CBE900675D
:101150004FF07E585D4BD3E90067284605F096F8BE
:1011600032463B4605F076FB002868D030463946CB
:1011700005F0B8FB0546CAF800002A46414620465D
:101180006B4600240194009402940394FFF78EFAB6
:1011900001A807C84E4B009C5C709970DA701870FB
:1011A00000F06EFE4B4B186005B0BDE8F08F06F006
:1011B0006FFA05F0A1FC4FF0405105F0F1FC3E4EF6
:1011C0000146306805F0E2FB02213060002001F0AA
:1011D00073FF00283FF46BAF06F05AFA05F08CFC61
:1011E0004FF0405105F0DCFC3549344F05F0D8FC98
:1011F00005F04CF802460B46D7E9000104F0E6FE84
:10120000C7E900010221002001F056FF00283FF449
:1012100069AF06F03DFA05F06FFC4FF0405105F064
:10122000BFFC2749DFF8B0A005F0BAFC0146DAF8A8
:10123000000005F0ABFB0546CAF8000066E7002693
:101240002846314605F04AFE002896D0CAF80060CC
:10125000354692E70021204605F040FE00283FF485
:1012600066AF0021204605F057FED8B1214615484B
:1012700005F08CFB0446306059E70DA7D7E90067FD
:101280004046494632463B4605F0C6FA20B1CBE916
:101290000067DFF848805DE74046494605F022FBDD
:1012A000804657E704F10044E0E700BFAFF3008059
:1012B000000000C0CCCCEC3FB890FF1F2887FF1F78
:1012C0000AD7A33B0000B4430000F03F5087FF1F44
:1012D0007895FF1FD490FF1F6C87FF1F6666663FDF
:1012E0002DE9F04F9D4B83B0186805F005FC0146D1
:1012F0004FF07E5005F008FD994905F051FC9849E2
:1013000005F04EFC0021044605F0FCFD002800F02D
:101310001B814FF07C51204605F03AFB05F006FE9C
:101320000646904B1868904B1E6005F0E5FB0146A1
:101330004FF07E5005F0E8FC894905F031FC884902
:1013400005F02EFC0021054605F0DCFD002800F02C
:10135000DF804FF07C51284605F01AFB05F0E6FDD2
:10136000DFF854820446C8F80000804D804B2C60A2
:10137000D3E9002300207F4905F006F900227E4BC7
:1013800004F0D8FF00227C4B04F0D4FF002200239D
:1013900004460D4605F054FA002800F0B080002203
:1013A000764B2046294604F013FE05F073FADFF869
:1013B0000CB2734FCBF80000304605F099FB4FF0AC
:1013C0007C5105F0E5FA05F0B1FD386000F058FDFC
:1013D000DFF8CC916B4CDFF8E8A16B4EC9F8000048
:1013E000FFF7C4F8694B1B78002B5AD0684B1B6879
:1013F000002BCABF5C4BD8F800301B683B6000F084
:101400003FFDDAF80030D8F80020C01A904201D32E
:10141000FFF71AFE5F4B1D78C5B900F031FD336848
:10142000DBF80020C01A904210D35B4B1B780BB145
:10143000594B1D7000231A46E15C3833002945D012
:101440000132142AF8D100F01BFD3060534B1868AC
:101450001D46C0EBC00304EBC30214F8333013B1D4
:101460005378002B44D101302860132802DD4B4A09
:101470000023136000F004FDD9F800303A68484DAD
:10148000C01A9042BBD3FFF7A7FC464800F034F9DE
:1014900000F0F6FC2860FFF769F83C4B1B78002B46
:1014A000A4D1414B414A1B6811680093404A009BFC
:1014B00012683D4D3D485B1A934291D32B680193CE
:1014C000019B324A03600123137089E7394933488D
:1014D0000A600260C2EBC2012A482D4B012200F8CB
:1014E00031202C491B680A70294A01331360AAE78E
:1014F000FFF79AFA08B92868B7E72868B3E7002227
:101500001E4B2046294604F061FD05F0C3F94EE765
:101510004FF07C51284605F039FA05F007FDDFF859
:1015200098800446C8F800000021284605F0EAFC2F
:1015300000283FF41AAF4FF07C51284605F028FAF6
:1015400005F0F4FC044610E74FF07C51204605F00E
:101550001DFA05F0EBFC0646E3E600BF3887FF1FE7
:1015600000007A443487FF1F3C95FF1F6C95FF1FD6
:101570005887FF1F0000F03F00408F400000E03F11
:101580009890FF1FD890FF1F8095FF1F6887FF1F4F
:101590008495FF1F9490FF1F4887FF1F7C95FF1FB6
:1015A0006495FF1FBC90FF1F9095FF1F5C95FF1F68
:1015B0007087FF1F5095FF1F7095FF1F5895FF1FE5
:1015C000D490FF1F38B5194C194DC623204602226E
:1015D0004FF4B46100F03EF8164A1749204605F072
:1015E000CBFC164B164C186805F086FA01464FF0F6
:1015F0007E5005F089FB134905F0D2FA114905F038
:10160000CFFA04F043FE02460B460F480F4900682C
:10161000C4E90023C1E9002304F026FE0C4BD3E902
:10162000002304F0B1FFC5E9000138BDBC90FF1FE5
:101630004095FF1F2087FF1FB51600003887FF1F4A
:10164000A090FF1F00007A443087FF1F4895FF1FBE
:101650006087FF1FF8B5C3F30116C3F38117044673
:101660000D46B74214BF0421032115FB01F0C3F35B
:101670008101FF2B617203F0030180B28CBF002354
:101680000123A172002126722170617361612373AD
:10169000E77220820121164605F074FC606018B1E3
:1016A000A674E5812046F8BDA6742082E08120461C
:1016B000F8BD00BF10B50446406808B105F0D6FC7F
:1016C00094F91200002803DBC0B2002100F09CFB5B
:1016D000204610BD10B5044690F91200002807DB23
:1016E000C0B2012100F090FB0021A07C00F068FB5B
:1016F0000123637310BD00BF2DE9F8434368002B3D
:101700004FD0044600F0BCFB6369C01AB0F5967F69
:10171000F8D372B6464994F912500B684548464AC8
:1017200050F835006668278A257B43F080730B608C
:10173000136843F0010337441360A5B3A1F55D417D
:10174000F8390A68BE4202F196021FD289464FF06C
:10175000010C16F8018B4FF0080E80250B689B1AC0
:10176000952BFBD918EA050FD9F8002080F880C026
:1017700055D00B689B1A5F2BFBD9BEF1010E80F888
:1017800000C14FEA5505E9D1B742E2D12B490B68B8
:101790009B1A952BFBD962B600F072FB6061BDE825
:1017A000F883BDE8F88325490A68BE4202F59672BF
:1017B00020D289464FF0010C16F8018B4FF0080E2D
:1017C00080250B689B1AB3F5967FFAD318EA050FAC
:1017D000D9F8002080F880C018D00B689B1A8F2B96
:1017E000FBD9BEF1010E80F800C14FEA5505E8D1E2
:1017F000B742E1D111490B689B1AB3F5967FFAD332
:1018000062B600F03DFB6061BDE8F8830B689B1A8F
:101810003B2BE6D80B689B1A3B2BF7D9E1E70B680B
:101820009B1A1D2BA9D80B689B1A1D2BF7D9A4E76F
:10183000FCED00E0907A0000001000E0041000E0F1
:1018400070B44E1C0478F6B2A64213D0013C14F0DA
:10185000FF04456810D1038A2A4653B1137804FB6C
:1018600003F31B1202F8013B531B018A9BB29942FE
:10187000F4D8067070BC7047FF2905D03302013BD5
:1018800093FBF4F4A4B2E6E74FF6FF7393FBF4F492
:10189000E1E700BF374A384913681B06FCD40B68E0
:1018A00013F08003F8D172B634490A78002A5FD069
:1018B000334A3448F0B4344C176806682568D46855
:1018C0000C303E44143200681268304F35442C44CA
:1018D00020440244C2F34E022D4E2E482E4D2F4C72
:1018E00042F400423A60376806682D682C4A246842
:1018F0000C303E44006812682A4F35442C44204482
:101900000244C2F34E02284E2848294D294C42F485
:1019100000423A60376806682D68274A24680C3010
:101920003E4400681268254F35442C44204402444C
:10193000C2F34E02224E2348234D244C42F400426F
:101940003A60376806682D68214A24680C303E44A6
:101950000068126835442C4420440244C2F34E020D
:101960001C4842F4004202600B7062B6F0BC704743
:1019700062B6704724B0034024B00B408995FF1F26
:1019800038B003403CB0034040B003402CB00340AB
:1019900058B003405CB0034060B0034064B0034003
:1019A0006CB0034030B0034038B00B403CB00B404B
:1019B00040B00B4044B00B404CB00B402CB00B403F
:1019C00058B00B405CB00B4060B00B4064B00B40B3
:1019D0006CB00B4030B00B4030B42948294A2A4B38
:1019E0002A4D6024E121047011701B78284C082BCB
:1019F00030D00A2B2748284937D00C2B0CBF352272
:101A00005D2212232A60236002600B60234B24496D
:101A10001B78244ABBB101230B601360224B23497E
:101A20001B78234A012B26D9042B0FD9082B1ED94A
:101A3000102B94BF862387230B6013601D4B01225C
:101A40001A7030BC70470B601360E7E784230B60AB
:101A50001360F3E700F58E200F490830212213238D
:101A60002A60236002600B60D0E73922F7E7852304
:101A70000B601360E2E780230B601360DEE700BFBA
:101A800000400740014007407487FF1F08B0034033
:101A90000CB0034008B00B400CB00B408C95FF1FFE
:101AA00020B0034020B00B407587FF1F24B00340D7
:101AB00024B00B408995FF1F28282FD8334B2DE9E0
:101AC000F0411E5CFF2E2BD0314B1B78002B2AD10E
:101AD00032062CD472B62F4D2F4C2F460123266090
:101AE0002B7062B672B623681B060CD43B781BB908
:101AF000F4E72B78002BF1D062B601F013FB72B63D
:101B000023681806F5D5254B1B6800222A7062B69B
:101B1000234A107843FA00F0BDE8F08100207047B6
:101B20000020BDE8F081FFF7B5FE3206D2D572B6CF
:101B30001C4DDFF87C801C4C06F04007FFB206F01D
:101B40003F06D8F80030DFB123F01003C8F80030AA
:101B500001232660134A2B7062B672B623681906F9
:101B60000CD413781BB9ECE72B78002BE9D062B6C4
:101B700001F0D8FA72B623681B06F5D50B4BC3E704
:101B800043F01003C8F80030E2E700BF647A0000B9
:101B90008995FF1F8B95FF1F00B0034010B00340D5
:101BA0008895FF1F8A95FF1F00B00B4010B00B40B7
:101BB0000CB00B4030B4054B054D064C00221021F3
:101BC0001A602A602060196030BC704714D003404E
:101BD00004D0034000D003402DE9F8436A4B6B4921
:101BE0006B4E6C4D6C4CDFF8D0C1DFF8D0E16B4A26
:101BF0006B4F4FF4000018604FF0807018604FF08A
:101C0000007018604FF0806018604FF0006018603E
:101C10000020086028234EF6FF71CCF80010CEF8A3
:101C20000030336013602B6023603B60B3629362CB
:101C3000092245F8242CC4F8D80F05F57F65C7F8AC
:101C4000D41F07F5FF2707F5FA67C6F8F83F2B60A2
:101C500006F5FF26C4F8D42F05F5FD2504F5FF246D
:101C6000386006F2F4764F48316005F5FF6504F5FB
:101C7000FD642B6023600260FFF7AEFE72B64A4D32
:101C80004A4B4B4A1B682C68126862B6510102D558
:101C9000322B88BF0134C3F5EA33464FDFF80C918D
:101CA000DFF80C81BF334FF47A72A7FB031302FBFA
:101CB00004F404EB9314322672B6D9F800102A68A3
:101CC000D8F800E062B6C1F5EA33BF33A7FB0303DF
:101CD0001EF0806FC4EB93134FF47A7002D0322958
:101CE00088BF013200FB0233B3F57A7F04D3013E93
:101CF00005D004F57A74DFE701F014FADCE700F0B0
:101D000015FF72B6294B2A4A1B682C68126862B606
:101D1000520102D5322B88BF0134C3F5EA33254F77
:101D2000DFF88890DFF88880BF334FF47A72A7FB22
:101D3000031302FB04F404EB93144FF4AF7672B672
:101D4000D9F800102A68D8F800E062B6C1F5EA3385
:101D5000BF33A7FB03031EF0806FC4EB93134FF454
:101D60007A7002D0322988BF013200FB0233B3F50A
:101D70007A7F04D3013E05D004F57A74DFE701F0E1
:101D8000D1F9DCE7BDE8F88308E100E00480034016
:101D900014800340248003402C8003401C800340B7
:101DA0003480034000800B409095FF1F18E000E056
:101DB00004ED00E089888888088003400C80034097
:101DC00021280BD810B40F4B53F8302092F88042E2
:101DD0002CB1012369B182F8803010BC704703EB4D
:101DE000C00043681A6841B922F002021A6010BCB0
:101DF000F4E782F8003110BCF0E742F003021A6009
:101E000010BCEBE7907A0000212820D81B4A02EB97
:101E1000C00301295B680FD004291DD052F830009F
:101E2000002280F8802299B1022922D003290DD105
:101E30004FF481721A60704752F830004FF4A2726A
:101E400080F880121A601A6822F020021A60704727
:101E50004FF480721A60704752F830104FF4A2723B
:101E6000012081F880021A601A6842F020021A608C
:101E7000704740F203121A60704700BF907A00006A
:101E800072B60C490C4B0D4A1B680868126862B6A2
:101E9000520102D5322B88BF01300949C3F5EA331C
:101EA0004FF47A72BF33A1FB031302FB00F000EB87
:101EB000931070479095FF1F18E000E004ED00E0DC
:101EC00089888888431E032B14D872B60A4951F8B2
:101ED000230068B170B4094C058834F813204668B3
:101EE00041F82360521B24F8132062B670BC70477F
:101EF00062B6704700207047EC95FF1F7498FF1F73
:101F0000013803280BD872B6074B53F8203043B181
:101F100000205B680130002BFBD162B670470020C7
:101F200070471846F9E700BF4096FF1F30B472B6FD
:101F30002B4A13781D0706D52A4B196A002936D07B
:101F4000996A002941D053781C0706D5254B196C96
:101F500000293ED0996C002939D09378190705D50E
:101F6000204B196E002936D0996E89B1D3781B07A2
:101F700007D51C4BD3F880207AB3D3F888201121E1
:101F80003AB162B6184B00221A7030BC00F05ABE4B
:101F90000D21154C154D227843F8315003EBC10348
:101FA0000830013A5860227062B630BC7047042293
:101FB0000D4C0F4D217843F8325003EBC20308302B
:101FC0004A1E5860227062B6EFE70521E1E7092159
:101FD000DFE70822ECE70C22EAE71022E8E700BF7F
:101FE000CC7B00000080FF1F6996FF1FC8004000E7
:101FF00088004000431E032B1DD81B4A400140F0BF
:10200000100030B4104472B6184CE25C032A1BD89E
:10201000DFE802F00212151703220D88E25410F0D7
:10202000080F14BFC823882343EA0543083103601F
:10203000416062B630BC704708300222EDE70522ED
:10204000EBE708300422E8E7094A52F8230038B1E8
:10205000084A52F82300416042F8231062B6E9E7CB
:1020600042F82310034AF7E70080FF1F7896FF1F0E
:102070004096FF1F5096FF1F2DE9F04FDFF80CB37D
:10208000DFF80CA387B044E0AB4F4FEA930807EBAF
:10209000C809013ED9F8042003F00803F6B2A2F102
:1020A000080003F0FF04002B40F0028157F838309D
:1020B0001B0C99B222F8081C002B00F0F0809F4BFB
:1020C00022F8064C42F8044C53F82620002A00F06F
:1020D000C5829B4D55F8263058609A4C45F826002D
:1020E00034F81630194424F8161000F08BFD00283F
:1020F00000F0AD82944A954B19F0080F00F10800EA
:1021000018BF1346C9F8040047F8383008238BF885
:1021100000309BF80040E4B261071AD58C4B1B7865
:10212000A3B18C490A7802F0FF0322B1013BDBB274
:102130000B7003B900BE88490A7802F0FF032AB188
:10214000013BDBB20B70002B00F0578204238BF8AD
:10215000003004F0080303F0FF02002B00F0CC80F5
:102160009AF80030DBB21E098ED19C08DFF8C891C6
:1021700059F8342009EBC401C2F38302013A4968DB
:102180000C2A00F28880DFE802F07C7C8686868656
:1021900086864786868607000868704D4A68704FB5
:1021A000704E286081B240F28160674B6A604FF0E8
:1021B000010E0022814249F834303A60C9F81020FB
:1021C000C9F8182086F800E05B4C00F2E380B1F516
:1021D000D06F80F04683B1F5817F00F0FC8200F281
:1021E0008D82802900F07783822940F0FA82A988C5
:1021F00001F07F01042900F2F4825B485B4C890006
:102200000844227062700278930740F1558484F884
:1022100000E04FF0020E42E3514F3A6832B3544BA4
:10222000504E5449188834780D784028864645F039
:10223000020828BF4FF0400E002C84F001043470D7
:10224000CEEB00000CBF8824C82409EBC80680B27E
:1022500085F0010544EA0E447260188049F8384060
:1022600072440D70002800F045813A603B4B1A889B
:10227000B2F5A06F0FD100219A7859703E4B1A70B9
:1022800009E0364A108842F22102904200F037817C
:102290002D4A49F83420394A0123137036E72A4A77
:1022A0002A4B19F0080F18BF134647F838302DE7AE
:1022B00000F0C8FC324A334952F82630002B00F0B7
:1022C000D18158688C5D42F8260003F10802C9F8F4
:1022D0000420032C05D8DFE804F02C022926022272
:1022E0008A551A8819F0080F0CBF8823C82343EABF
:1022F000024347F8383009E7E00700F18181210601
:1023000000F1F281A20706D51F4A20491378022066
:10231000DBB213700870E30602D51C4B10221A7052
:1023200007B0BDE8F08F04228A55DAE705228A5506
:10233000D7E703228A55D4E70080FF1FEC95FF1FE3
:102340009895FF1F7498FF1FC80040008800400048
:102350007496FF1FFD95FF1F7C96FF1F6096FF1F61
:102360009495FF1FFC95FF1FC02007406C96FF1F30
:10237000A895FF1F6896FF1F9820074094200740EC
:102380004096FF1F7896FF1F882007408020074057
:102390009020074042F22100814200F02A8100F2A1
:1023A000D880B1F5086F00F07682B1F5106F40F07B
:1023B0001882226AB349A8780870120600F13783A0
:1023C000D9F82820B049130600F12C83D9F8302021
:1023D000AD49150600F1FF82D9F83820AA49140644
:1023E00000F1F482D9F84020A749100600F1478394
:1023F000D9F84820A449120600F13C83D9F85020AE
:10240000A149130600F13183D9F858209E491506D9
:1024100000F12683D9F860209B49140600F11B8344
:10242000D9F868209849100600F11083D9F8702077
:102430009549120600F10583D9F8782092491306D0
:1024400000F1FA82D9F880208F49150600F12E8319
:10245000D9F888208C49140600F12283D9F89020FD
:102460008949100600F11683D9F89820864912068A
:1024700000F10A838548864A864901908648874C40
:10248000874D029400230497059680461C460F460C
:1024900016460395306828B1456800F0D3FB2846FE
:1024A000002DF9D100233360039B38681A460023BE
:1024B00042F8243028B1456800F0C4FB2846002DBE
:1024C000F9D100223A60019A98F8003011460022B2
:1024D00041F8042B029A0191023B4FF0000122F8CF
:1024E0001410032B00F22B81DFE813F0700125019B
:1024F00070012501BEF1400F18BF0022B5E6694A00
:102500000D784878157050708D78C8789570D070B7
:1025100010680D79157186284D79897955719171F9
:1025200000F09B816049614E0A78307882F00105A5
:10253000002842F002020D700CBF8821C82149F822
:10254000321009EBC20280F00100002130705160AE
:102550009EE642F22120814240F0CB81544B554C03
:102560005549A8781D682560CDF804E00870002062
:1025700002908046844604464B490D7845F0020E91
:1025800009EBCE030393019B002B039B5C600CBF04
:102590008824C82444EA080385F0010449F83E3041
:1025A00032700C70DFF8E0E0404BDFF8FC80002870
:1025B00040F01E81BCF1400F1BD144F0020C09EB2E
:1025C000CC03029CDFF8C0E05C60002A40F026816A
:1025D000020442F088029DF804304EF83C20044486
:1025E00033700D702346402803D10020334A3B60EE
:1025F0001080334A012313704DE600F0DFFCA5E59F
:10260000214B2F4828491A614FF0020E80F800E054
:102610002C4F0A702C49196099602C4E2C4D2D4C72
:102620009A610D213970FF213170DFF8B8E029700F
:102630002270294D294A8EF800109F27012406F8A0
:10264000047C5D600470DA6007B0BDE8F08F244A56
:1026500047F8380013780133137057E543F8260024
:102660000F4D3AE58B5D032B00F2F08001A252F88A
:1026700023F000BF0D2100000D21000031270000D4
:102680002B2700007496FF1F0080FF1F5096FF1F2E
:10269000EC95FF1F4096FF1F7896FF1F7498FF1F51
:1026A0009895FF1F7C98FF1F6896FF1FFC95FF1FE2
:1026B0009095FF1F8498FF1F8C96FF1FA895FF1F02
:1026C00094200740C0200740880040008820074031
:1026D0008020074098200740AC95FF1F0096FF1F01
:1026E0006996FF1F8C200740BD49BE4B80220D20FC
:1026F00008701A70A2077FF50EAE05E640F20232AE
:10270000914240F0EE80A98801F07F01042968D849
:102710006A88002A65D1B248CDF804E089000844EF
:10272000017841F00201017021E701238B55EDE4AE
:1027300000238B55EAE44FF0010388F800300134A0
:10274000042C06F1040607F1040708F101087FF4E0
:10275000A1AEA54CA54B2278A54D049F059E002156
:1027600029701A70130700F105816278A149DFF81A
:1027700090820A7010074FF00001C9F83010C9F8B4
:10278000381000F1E1809C49A2780A700021C9F854
:102790005010C9F858101107DFF8648200F1008169
:1027A000E2789649964C0A7000211207C9F8701019
:1027B000C9F8781000F1B08033780193002183F0DC
:1027C0000102C9F89010C9F89810D0E64FF0000344
:1027D00088F80030B3E7A98801F07F01042940F2AE
:1027E0008D807F4A0F231370864A0123137052E5B0
:1027F00040287FF6E2AE44F002040EEBC401029ED4
:102800004E60BAB19DF804107F4A197033464038C3
:1028100088F8005040334EF83420E7E69DF8043045
:1028200033700204029B0D7042F0C80203444EF85C
:102830003C20D8E69DF804101970029B734A88F872
:102840000050403840334EF83420CFE619F0080FDE
:102850000CBF022303238B5558E46D4A0F211170DE
:1028600060E66C4A5468002CBBD06888B5F804E078
:1028700003E00C325468002CB3D013888342F8D1A3
:1028800053887345F5D1000A03280CBF94F800E083
:10289000B2F808E003E0604A604C12782270E888E1
:1028A000704580F031815E490D784028844645F0BE
:1028B000020E28BF4FF0400C04EB0C0309EBCE02D4
:1028C000029301235460CCEB00004FEA0C48002235
:1028D0000193C8245EE6514C4FF0020E22706270E4
:1028E000DDE7B1F5A06F7FF47CAF012300220193F7
:1028F0003DE642F221329142F7D072E76A88002A1F
:102900007FF46FAF3648CDF804E0890008440178C1
:1029100021F0020101702AE600F074F9002800F0AD
:10292000E6800830C4F884003848C9F8800000F018
:1029300069F9334A002800F0D48008303249C2F8DF
:102940008C00C2F8881037E700F05CF9002800F02E
:10295000BB800830C8F844002C48C9F8400000F09B
:1029600051F9274A002800F0AA8008302649D0648F
:10297000916408E700F046F9002800F0C1800830B3
:10298000C9F824002148C9F8200000F03BF91C4A8E
:10299000002800F0B08008301B49D0629162E4E664
:1029A00000F030F9002800F098800830C8F8640082
:1029B0001648C9F8600000F025F9114A002800F017
:1029C000878008301049D0669166E9E6C86B083800
:1029D00000F038F906E5486B083800F033F9FBE4FD
:1029E000C020074080200740CC7B0000C420074067
:1029F0006996FF1FC8200740CC200740D020074021
:102A00000080FF1F94200740C8004000880040005D
:102A1000FD95FF1FD07B00007496FF1F6C96FF1F73
:102A20006896FF1FC86A083800F00CF9CEE4606AA7
:102A3000083800F007F9C3E4C86F083800F002F95D
:102A400000E5486F083800F0FDF8F5E4C86E083876
:102A500000F0F8F8EAE4486E083800F0F3F8DFE434
:102A6000C86D083800F0EEF8D4E4486D083800F07E
:102A7000E9F8C9E4C86C083800F0E4F8BEE4486C32
:102A8000083800F0DFF8B3E4D1F89C00083800F013
:102A9000D9F8EFE4D1F89400083800F0D3F8E3E473
:102AA000D1F88C00083800F0CDF8D7E4D1F88400D4
:102AB000083800F0C7F8CBE44FF0020EEFE62978B3
:102AC00090644A1C2A705EE62A7801322A7044E734
:102AD000297890664A1C2A7062E62A7801322A70A8
:102AE00067E72978C2F888004A1C2A7064E62A78C9
:102AF00001322A7019E7297890624A1C2A7034E65C
:102B00002A7801322A703EE7BEF1400FF44628BF12
:102B10004FF0400C04EB0C0302930123CCEB0E00AE
:102B20004FEA0C480022019326E500BFF8B500F0FB
:102B30005BFD294B29482A4C2A4F2B4DDFF8BCC09E
:102B4000DFF8BCE0294E00221A605A609A60DA6011
:102B50001A615A619A61DA611A625A629A62DA6299
:102B60001A635A639A63DA631A645A649A64DA6479
:102B70001A655A659A65DA651A665A669A66DA6659
:102B80001A675A679A67DA67C3F880200168C3F842
:102B9000842041F480210160C3F307212170C3F335
:102BA0000740134938701B0E2B70FF238CF8003040
:102BB000104D8EF8003010480B700123337084F8EC
:102BC000642070264FF40074102207F82C3C2E70FD
:102BD000046081F8F820F8BD0080FF1F34800440B5
:102BE0009C200740B0200740B420074094200740B5
:102BF0001020074049E400E008E100E080200740A1
:102C00008820074072B60D480268B2FA82F30B2B97
:102C100010DC4FF00041D94022EA0102026062B6A6
:102C2000074803EBC303DB00C2180021C150104664
:102C30005160704762B60020704700BF7887FF1F61
:102C4000BC83FF1F0D4B0E4AC31AA2FB03231B09B3
:102C50000B2B0CD80B4A127852B972B60A484FF0B7
:102C60000041026821FA03F31A43026062B670471A
:102C7000064A1278002AF0D0FFF758B9BC83FF1F2C
:102C8000398EE3386996FF1F7887FF1F7496FF1F00
:102C900038B50F4D286878B143880288C1180133D0
:102CA00093420C7A02D24380204638BDFFF7CAFF18
:102CB000002320462B6038BD064B1B782BB1032028
:102CC000FFF700F928600028E6D14FF0FF3038BD4B
:102CD0008896FF1F7496FF1F10B5094C206818B125
:102CE00043881844007A10BD064B1B782BB1032093
:102CF000FFF7E8F820600028F2D14FF0FF3010BD58
:102D00008896FF1F7496FF1F044B054A1B68908826
:102D10001BB11A885B88D31A184470478896FF1F26
:102D20007498FF1F0B4B1B789BB110B50A4C2068A1
:102D300048B1FFF787FF002303202360FFF7C2F8A5
:102D400030B1FFF77FFF0320FFF7BCF80028F8D170
:102D500010BD70477496FF1F8896FF1F2DE9F04F36
:102D6000634A83B001231370019100296CD0DFF80E
:102D70009081604F0446D8F800000E46002800F00D
:102D800081805D4D4388C3F14001B14228BF314687
:102D900003EB01091FFA89F900F108024FF0000E58
:102DA000761AA0F8029001F1FF3C1A4485F800E081
:102DB000002941D003F108050C330344054404F114
:102DC00004094D4538BF9C422CBF0123002309292B
:102DD00094BF002303F00103002B4AD044EA05030B
:102DE0009B0746D10B1F9B080133BCF1020F4FEA32
:102DF00083093CD9A4F1040A9B460EF1010E5AF84E
:102E0000043F45F8043BF345F7D849454A44C9EB2C
:102E10000C0C04EB090361D01D781570BCF1000F98
:102E200023D05D785570BCF1010F1ED09B78937054
:102E30002144B0F802900C46B9F13F0F0BD82F4B4C
:102E400005221A70002E99D10198294A0023137087
:102E500003B0BDE8F08F4023038001460420FFF754
:102E6000C9F80020C8F80000E9E72144E1E723465B
:102E7000D2E7013A214414F8013B02F8013F8C42A9
:102E8000F9D1D6E73B785BB31B4D4DF2E9094FF022
:102E9000010A08E0B9F1010919D02B78BBB900F09B
:102EA00041F93B78E3B10420FFF72AF80728F1D86D
:102EB0000F4B83F800A0FFF7A5FEC8F8000000281C
:102EC0007FF460AF0A4BB9F101091870E5D1012315
:102ED0004FF0FF302B7003B0BDE8F08F1946A8E724
:102EE000034A00234FF0FF30137003B0BDE8F08FAA
:102EF0007D96FF1F7496FF1F8496FF1F7C96FF1F11
:102F00008096FF1F00B583B002AB012103F8010DCD
:102F10001846FFF723FF03B05DF804FB38B50E4DEC
:102F20000E4C28680123237028B1408800232370A9
:102F3000C0F1400038BD0A4B1B7813B90020207047
:102F400038BD0420FEF7DCFF0728F7D8FFF75AFE4C
:102F500028600028E9D1F1E78096FF1F7D96FF1FCA
:102F60007496FF1FF8B5114B1B788BB1104E114DA5
:102F7000346801272F7064B10F4A638800271770E7
:102F8000214623800420FFF735F8376000232B709B
:102F9000F8BDFFF737FE084B28B1014604201C702E
:102FA000FFF728F8F2E71F70F0E700BF7496FF1FE5
:102FB0008096FF1F7D96FF1F7C96FF1F38B50E4B36
:102FC0001B7873B90D4C216861B103F0FF054B8884
:102FD0000B800420FFF70EF8256038BD084B012256
:102FE0001A7038BDFFF70EFE0028F7D00146BDE885
:102FF00038400420FEF7FEBF7D96FF1F8096FF1F1E
:103000007C96FF1F08B5FDF731FAFEF769F900F06D
:1030100089F8FAE7F8B572B106460F46144600255E
:10302000336817F8011B1B6830469847013C05447C
:10303000F6D12846F8BD1546FBE700BF30B503685A
:103040000D490E4A5C68098883B09442ADF80410BB
:103050000DD105461B680D2198472B689DF805107A
:103060001B68044628469847204403B030BD01A998
:103070000222A04703B030BDA07B00001530000045
:10308000FFF750BEFFF728BEFFF702BEFFF73CBEBA
:10309000FFF768BFFFF742BF08461146FFF75EBE65
:1030A0000846FFF72FBF00BF704700BF08B1014BB4
:1030B000186070479096FF1F88420CDAF0B4144DE8
:1030C0002A68091A42B9134B2B60F0BCB3FBF1F22A
:1030D00001FB1231084470470F4C104B82FB046710
:1030E00084FB02461644D419D717C7EB2444C7EB18
:1030F00026460B4F03FB142207FB06F644F2A713E8
:1031000003FB0263002BDFDA03F10043013BDBE743
:103110009096FF1F42CE0C1F5F0B4E831DF30100E4
:10312000ECF4FFFF38B5224C237803B138BD0123FE
:103130002370FFF7E9FD70BB00F0AEF840BB00F074
:1031400041F910BB00F0D4F9E0B900232370EFF38C
:103150000583002BEAD1EFF3108172B6154B186886
:10316000E0B1154C2278CAB945691D60012323706E
:10317000C5B1AA6101B962B6002545778368984751
:103180002570D3E700F01CFCDFE700F017FCD9E75F
:1031900000F012FCD3E7FFF787FFCDE70029C5D188
:1031A00062B638BD054B1D600029E5D1E3E700BFDD
:1031B0009496FF1F3498FF1F3898FF1F3098FF1F09
:1031C00008B5104C08E0236859050DD423681A058A
:1031D0000FD42368DB0411D423685803F3D5FEF71A
:1031E0004BFF23685905F1D500F066F823681A05EE
:1031F000EFD500F0F7F82368DB04EDD500F088F98F
:10320000EAE700BF3480044008B5FFF7D9FF00BFEC
:10321000014B10221A80704700200540704700BF04
:10322000094908B50B6830B16A461844A2F58052C6
:10323000904202D20860184608BD03F0E1FE0C235C
:1032400003604FF0FF3008BD8C87FF1FF0B44D1EA8
:103250002E46002400E00134B0FBF2F302FB130021
:10326000092800F130078ABF3730F8B2C0B206F83B
:10327000010F1846002BEED10A1953704CB110788B
:1032800015F8016F28700133E01A834202F80169D2
:10329000F5DB0846F0BC7047054A064B10781B78F2
:1032A000C0B2DBB2984238BF4030C01A704700BF8E
:1032B0002097FF1F9D96FF1FF0B4384B1A7912F02C
:1032C000300F2CD072B6997D01F0FF0200293DD05D
:1032D00062B6334F334938780D78334E1C46C0B24E
:1032E000EDB2431C402BE17928BF0023AB4202F131
:1032F000FF32C9B21CBFF154184612F0FF02F0D1E0
:103300002A4B1B68C2B23A704BB1A84236BFC5F116
:103310004005401B40192728C4BF01221A701F49CD
:10332000CA78D2B2150616D452060DD51B4B1B799E
:103330005B0609D51E4B1F491B6800220A7003B1AA
:103340001A70164B3C22DA70F0BC70474022D979D3
:103350005A7462B6E3E70B791C06E5D5164B174E97
:103360001C783378E4B2DBB29C420ED0144D01E0FD
:10337000A3420AD00133402B28BF00230879E85C20
:10338000C0B2C871087D0728F2D9DBB20349337097
:103390000B79180644BF7C23CB70C5E700A006401C
:1033A0002097FF1F9D96FF1FE096FF1F9896FF1F17
:1033B0002497FF1F9C96FF1F2897FF1F2197FF1F31
:1033C000A096FF1F054A064B10781B78C0B2DBB2EF
:1033D000984238BF4030C01A704700BF9C97FF1F0B
:1033E0003197FF1FF0B4384B1A7912F0300F2CD000
:1033F00072B6997D01F0FF0200293DD062B6334FCD
:10340000334938780D78334E1C46C0B2EDB2431CB8
:10341000402BE17928BF0023AB4202F1FF32C9B251
:103420001CBFF154184612F0FF02F0D12A4B1B6862
:10343000C2B23A704BB1A84236BFC5F14005401B3D
:1034400040192728C4BF01221A701F49CA78D2B276
:10345000150616D452060DD51B4B1B795B0609D5F4
:103460001E4B1F491B6800220A7003B11A70164BCD
:103470003C22DA70F0BC70474022D9795A7462B6A7
:10348000E3E70B791C06E5D5164B174E1C7833780D
:10349000E4B2DBB29C420ED0144D01E0A3420AD04C
:1034A0000133282B28BF00230879E85CC0B2C8711B
:1034B000087D0728F2D9DBB2034933700B7918066F
:1034C00044BF7C23CB70C5E700B006409C97FF1F2C
:1034D0003197FF1F5C97FF1F2C97FF1FA097FF1FBF
:1034E0003097FF1FA497FF1F9D97FF1F3497FF1F63
:1034F000054A064B10781B78C0B2DBB2984238BF41
:103500004030C01A704700BF1898FF1FAD97FF1FCB
:1035100030B42B4B1A7994061FD52A48DA790378F0
:10352000294901333F2B0978C8BF00238B42D2B20F
:1035300003D0264CD9B2E2540170254A116861B11A
:10354000244A1278D2B2934236BFC2F140029B1A8B
:103550009B18272BC4BF01230B70194AD378DBB209
:10356000180611D45A060DD5154B1B795B0609D5E3
:10357000194B1A491B6800220A7003B11A70104BCC
:103580002C22DA7030BC704711790906EAD514494B
:1035900010480C780178C9B28C420DD04A1C272AF9
:1035A00084BF00210A460F4D054C98BFD1B2AA5CDA
:1035B000D2B2E2710170D5E76C21D170D2E700BFC1
:1035C00000C006401898FF1FAD97FF1FD897FF1F38
:1035D000A897FF1F1998FF1F1C98FF1FAC97FF1F8C
:1035E0002098FF1FB097FF1F70B584B072B6304BA4
:1035F000304D3148702241260F2480211A702E70E0
:103600001A460470197013781B06FCD52B4B1868EA
:1036100062B62B4B984298BF00EB80004FF00A0235
:1036200098BF400001A9FFF711FE9DF80420254B2B
:1036300052B39DF805105A8061B39DF80620998019
:1036400052B39DF80710DA8041B39DF80820198124
:1036500032B39DF809105A8121B39DF80A2099814F
:1036600012B39DF80B10DA8101B39DF80C2019827A
:103670004AB19DF80D105A82092229B11622998269
:103680001A7004B070BD082201325200D2B21A7012
:1036900004B070BD0122F7E70222F5E70322F3E749
:1036A0000422F1E70522EFE70622EDE70722EBE728
:1036B00000000240070002400600024008000240ED
:1036C0007F9698001C88FF1F10B4047F4160022C75
:1036D0000346C2600FD0EFF3108172B6427F32B959
:1036E000007F01280AD0032812D001225A7701B99D
:1036F00062B610BC7047836810BC1847114C206834
:10370000A0B111485A6102689A6103605361ECE705
:103710000E4C206880B10E485A6102689A610360BD
:1037200053610C4A4FF080501060DEE7064A586142
:10373000986123601360D8E7054A58619861236057
:103740001360EEE73498FF1F3098FF1F2498FF1F87
:103750002898FF1F04ED00E070B5EFF3108272B6F9
:103760000C4C206880B10C4E00254369236073B176
:103770009D6102B962B6457783689847EFF310827E
:1037800072B620680028F0D102B962B670BD33600D
:10379000EFE700BF2498FF1F2898FF1F2DE9F8438B
:1037A000794E3468002C31D02368002B2CD1DFF8FF
:1037B000EC91764FDFF8E8811D46A36803B1DD6028
:1037C00020693360036825751B684B456AD1037F08
:1037D0004560022BC46069D0EFF3108272B6437F5C
:1037E00043B9017F012900F09080032900F09980FE
:1037F0000123437702B962B66368002B3FD1346876
:1038000024B12368002BD8D0013B2360EFF3108351
:1038100072B65F4A00211068116003B962B60028D1
:1038200000F0AD804FF000083568C4464FF0020E3E
:103830000EE0CB1A8560C0F80CC001462B60E86032
:103840004FF0010880F814E00D463846002F51D0A3
:103850008768002D53D0036829688B42E9D32C4632
:1038600003E011688B42144635D3A2685B1A0360EB
:10387000002AF6D18260C4602946A060E2E7306881
:10388000414A2360002868D001688B4211D2CB1ACC
:10389000A060E5600360C4601460204602232375C5
:1038A0000446AEE7224600219847A5E7836898477B
:1038B000A2E7864603E011688B4296463ED3DEF8C7
:1038C00008205B1A2360002AF5D1A260C4F80CE03E
:1038D000CEF80840E2E7D268C2608460E060C26867
:1038E000CB1A294690600D46236080F814E03846D4
:1038F000002FADD1B8F1000F43D1BDE8F88385604A
:10390000C56001464FF001089CE7DFF898E0DEF85B
:10391000001039B31F4943610B6883610860586127
:1039200066E7396829B31C4943610B688361086005
:1039300058614FF08053C8F8003059E7D268E26010
:10394000C4F808E0CEF80C40E268CB1A022194607B
:10395000CEF800302175044653E7A060E0601460A3
:1039600020469BE70B4B41618161CEF80000186057
:103970003EE7094B4161816138601860D9E7BDE8D5
:10398000F8833160BDE8F8832C98FF1F2498FF1F4F
:103990003C98FF1F3098FF1F2898FF1FC936000072
:1039A00004ED00E03498FF1F024A136801331360EE
:1039B000FFF7F4BE9095FF1F704700BF704700BF30
:1039C000704700BF30B5224A21F00043934287B0D0
:1039D0001BDD204A934205DD02460B4602F0F6FA53
:1039E00007B030BD02AA01F08BF800F00303012BF1
:1039F0001AD0022B0FD01BB30124DDE90423DDE92B
:103A00000201009402F07CF8EAE70022002301F0B2
:103A10005BFB07B030BDDDE90423DDE9020101F005
:103A200053FB01F10041DBE7DDE904450093DDE9EB
:103A3000020122462B4602F063F801F10041CFE774
:103A4000DDE90423DDE9020101F03EFBC8E700BF28
:103A5000FB21E93FFFFFEF7F2DE9F04F8BB01D46C3
:103A600080468946144600F0D1F92A4B93F900A00C
:103A7000BAF1FF3F06460F462FD022462B4620467E
:103A8000294602F0F1FE40BB42464B4640464946BD
:103A900002F0EAFE834600BB0022002320462946AE
:103AA00002F0B0FEC8B11C4BCDF820B00122CDE928
:103AB0000289CDE904458DE80C00BAF1000F11D15F
:103AC000CDE90689684602F063F9B0B1089BDBB91D
:103AD000DDE906010BB0BDE8F08F304639460BB08A
:103AE000BDE8F08F002200231046194602F04CFD7D
:103AF000BAF1020FCDE90601E4D103F081FA2123E6
:103B00000360089B002BE3D003F07AFA089B036064
:103B1000DEE700BF3288FF1F247C00002DE9F04F54
:103B2000DFF8E4928DB006460F4614461D4600F0BD
:103B30008BFA99F90080B8F1FF3FCDE9000146D03A
:103B400022462B462046294602F08EFE8346002858
:103B50003DD132463B463046394602F085FE0022D2
:103B600082460023002840F084803046394602F027
:103B700049FE002830D0002200232046294602F0CA
:103B800041FE8346A8B10122984B029200210022F7
:103B9000CDF828A0CDE90467CDE90645CDE90812A6
:103BA0000393B8F1000F53D0914900200DB0BDE848
:103BB000F08F2046294602F05DF840B10022002334
:103BC0002046294602F028FE002840F0B780DDE9B3
:103BD00000010DB0BDE8F08FDDE9000102F04AF808
:103BE000804600285DD04FF0000A4FF0000B52468F
:103BF0005B46DDE9000102F005FE0028E7D0304613
:103C0000394602F037F80028E1D02046294602F074
:103C100031F80028DBD099F90030744A039204216E
:103C20000022022BCDE90467CDE90645CDE908ABBA
:103C300002910A9203D002A802F0AAF870B903F028
:103C4000DFF92223036009E000230024CDE90834D2
:103C500002A802F09DF8002800F086800A9B1BB1A4
:103C600003F0CEF90A9B0360DDE908010DB0BDE861
:103C7000F08F2046294602F0C5FD0028A7D05C49F8
:103C80005A4BCDF828B001220020B8F1020FCDE93F
:103C90000467CDE9064502920393CDE90801D7D127
:103CA00097E73046394601F0E5FF00289BD02046D3
:103CB000294601F0DFFF002895D0DDE900231046FA
:103CC000194602F0D1FD002873D1032399F9008031
:103CD0000293464B0A900393CDE90467CDE906456C
:103CE0000022002330463946B8F1000F41D1414F40
:103CF0004FF06046CDE9086702F08EFD00289AD0AB
:103D000000223D4B2046294602F014FB04460D4696
:103D100002F046F802460B462046294602F072FDA4
:103D2000002843D1354B99F900804FF06042CDE92E
:103D30000823B8F1020F7FF47EAF80E799F90030D5
:103D40002A4ACDF828B00121CDE90467CDE906451E
:103D500002910392002B3FF477AF29490020022BF8
:103D6000CDE908017FF474AF03F04AF92123036021
:103D700074E7244F0026CDE9086702F04DFD0028C6
:103D8000D7D000221C4B2046294602F0D3FA044625
:103D90000D4602F005F802460B462046294602F081
:103DA00031FD18B9164B0022CDE9082399F900809E
:103DB000BFE799F900900D4BCDF828800122CDE99D
:103DC0000467CDE9064502920393B9F1000F3FF471
:103DD0003BAF002200231046194602F0D5FBB9F193
:103DE000020FCDE90801BFD032E700BF2C7C0000F4
:103DF0000000F03FFFFFEF470000E03FFFFFEFC78D
:103E00000000F0FF0000F07F3288FF1F2DE9F84F1F
:103E100023F0004952EA090620D001F00046824F03
:103E200081EA0608B84519DC57421743DFF810B29B
:103E300049EAD7775F45944610D8C8451D46824663
:103E40000446964612DC0FDB90420DD30ED1774B21
:103E5000F60F03EBC60393E8030005E002F06AFAED
:103E600002460B4602F090FBBDE8F88FB8F5801FC4
:103E70000EDAB8F1000F40F09B80BAF1000F534604
:103E80006B4909DD5B00002B01F1FF31FADC03E037
:103E90004FEA2851A1F2FF31B9F5801F0EDAB9F1CE
:103EA000000F40F09E80BCF1000F6346604F09DDBB
:103EB0005B00002B07F1FF37FADC03E04FEA2957DC
:103EC000A7F2FF375B4B994255DBC8F3130343F46A
:103ED0008013584A97425DDBC5F3130545F48015FE
:103EE000C91B07E052EA000313D0C30F03EB4203E0
:103EF00044000139CEEB04005A1B89B1744538BF28
:103F000002F1FF32002AEDDAE20F02EB4303640014
:103F1000EFE7464BF60F03EBC60696E80300A3E770
:103F20007445154638BF02F1FF35002DACBFCEEB0E
:103F300004041D4655EA0403EBD03F4A954208DCD1
:103F4000E30F03EB4505954207F1FF374FEA4404C1
:103F5000F6DD384B9F424DDA364AD21B142A53DC29
:103F6000C2F1200305FA03F3D4402343154145EA87
:103F70000601184678E72F4C641A1F2C2BDCC4F17D
:103F8000200308FA04F82AFA03F343EA08030AFABA
:103F900004F49EE72748C01B1F2815DCC0F120024F
:103FA00009FA00F52CFA02F215430CFA00FE97E725
:103FB0004FEAC823002B1F497FF76EAF5B00002B31
:103FC00001F1FF31FADC67E71C4DED1B0CFA05F53A
:103FD0004FF0000E84E7194B5B1A0AFA03F3002432
:103FE00077E7144F4FEAC9235B00002B07F1FF3737
:103FF000FADC67E7A5F580152E4307F2FF3746EA9E
:104000000753204619462FE71F2A07DCC2F1200379
:104010009D40D44045EA04033546A8E7074BDB1B27
:1040200045FA03F33546A2E7FFFFEF7F307C00003F
:10403000EDFBFFFF02FCFFFFFFFF0F00E2FBFFFFB6
:104040000000F07FFFFFFFFF2DE9F04F23F0004855
:1040500058EA020993B03CD0714C21F00046A642C8
:1040600083460D460CDD06F1404606F5801656EAFD
:104070000B0038D16B498346584613B0BDE8F08F2A
:104080009A4696462BD0A045EDDC654CA04578D0ED
:10409000002D0F468146CDE9002376DB0024BEF1DA
:1040A000000F27D15E4B984500F08B805D4B984503
:1040B00052D0BAF1804F00F0C2835B4B9A4519D1C0
:1040C000002D17DB4846394613B0BDE8F04F00F02D
:1040D00039BFCB465349584613B0BDE8F08F00288E
:1040E000C1D1B045D1DD514813B0BDE8F04F01F06A
:1040F00051BE00244846394601F0B8FDBBF1000F1F
:104100001CD0ED0F013D54EA050370D0484B984593
:1041100040F3948003F10473984540F30584454BC4
:104120009E4270DDBAF1000F70DD3BA3D3E900239E
:104130001046194602F0FEF883469DE726B1394B3A
:1041400025F040429A42DCD1BAF1000FC0F2B083B0
:10415000002D08DB83468FE7BAF1000FC0F25684CA
:10416000CB46394688E706F1404606F5801656EA02
:10417000040300F07B84012CECD1834601F1004163
:104180007AE7BEF1000F83D06DE72B4B98452CDC0E
:10419000A3F15473984581DD4FEA2853A3F2FF330E
:1041A000142B40F34B84C3F134032EFA03F202FACA
:1041B00003F39E457FF472AF02F00102C2F10204E4
:1041C0006DE706F1404303F5801353EA0B0300F05B
:1041D0003383184B9E4240F36083BAF1000F15DB26
:1041E000DDE900349B46214646E7022457E74A466C
:1041F00048463B46394601F0E9FE02460B4602F0CE
:10420000C3F9834638E7BAF1000F8EDB4FF0000B9D
:10421000594631E7AFF300809C7500883CE4377E57
:104220000000F07F0000F03F0000E03F287C00002D
:104230000000E041FFFFEF3FFFFF3F43B6F5801F67
:104240004FF0000205DAD44B02F074F86FF034023C
:104250000E463315D14FC6F31306A3F2FF331344B2
:1042600046F07F5ABE421A460D934AF4401A40F374
:10427000C183CB4B9E4240F3FD83134601330D9324
:10428000C84B0022CDE9062300270026CDE90867A8
:10429000CDE90E67AAF5801A00270246534651461B
:1042A000CDE90A23DDE9062301F090FEDDE90623CE
:1042B00080468946DDE90A0101F08AFE02460B4686
:1042C0000020B84902F060F90A460146CDE9101213
:1042D000134649460246404602F02CF84FEA6A036C
:1042E00043F000538C46834603F50023CDE904BC1C
:1042F000DA468B46D9190023CDE902AB0293DDE9FA
:1043000002AB002006460F4602460B465046594671
:1043100002F010F802460B464046494601F056FEB0
:10432000DDE90623804689463046394601F04EFED7
:1043300002460B46DDE90A0101F048FE52465B46A3
:1043400001F0F8FF02460B464046494601F03EFEAA
:10435000DDE9102301F0EEFFDDE90467CDE9060198
:1043600032463B463046394601F0E4FF78A3D3E9B4
:10437000002306460F4601F0DDFF77A3D3E90023B3
:1043800001F026FE32463B4601F0D4FF74A3D3E988
:10439000002301F01DFE32463B4601F0CBFF72A325
:1043A000D3E9002301F014FE32463B4601F0C2FF80
:1043B0006FA3D3E9002301F00BFE32463B4601F028
:1043C000B9FF6DA3D3E9002301F002FE3246804617
:1043D00089463B463046394601F0ACFF02460B4663
:1043E0004046494601F0A6FF524606460F465B4648
:1043F000DDE9040101F0ECFDDDE9062301F09AFF9F
:1044000032463B4601F0E4FD5246804689465B4613
:104410005046594601F08EFF0022634BCDE90A0158
:1044200001F0D6FD42464B4601F0D2FD02980F4600
:10443000064632463B465046594601F07BFF002275
:1044400082468B46584B3046394601F0BFFDDDE9C8
:104450000A2301F0BBFD02460B464046494601F0E7
:10446000B5FDDDE9042301F065FF3246804689464B
:104470003B46DDE9060101F05DFF02460B46404682
:10448000494601F0A5FD8046894602460B46504646
:104490005946CDE904AB01F09BFDDDE902AB38A341
:1044A000D3E9002350460F4601F044FFDDE9042321
:1044B000CDE902013946504601F088FD02460B461F
:1044C0004046494601F082FD2FA3D3E9002301F0C5
:1044D00031FF2FA3D3E90023804689465046394651
:1044E00001F028FF02460B464046494601F070FDA8
:1044F000DDE90E2301F06CFD80460D98894601F040
:10450000B3FE424606460F464B46DDE9020101F086
:104510005FFDDDE9082301F05BFD32463B4601F01B
:1045200057FD32463B4650468B4601F04FFDDDE9D4
:10453000082301F04BFDDDE9022301F047FD0246AF
:104540000B464046494601F041FD80462EE000BF43
:10455000EF4E454A287ECA3F65DBC9934A86CD3F68
:1045600001411DA96074D13F4D268F515555D53F4E
:10457000FFAB6FDBB66DDB3F033333333333E33FE6
:10458000000000E009C7EE3FFD033ADC09C7EE3F3B
:10459000F5015B14E02F3EBE000040438E980300FF
:1045A00079B60B000000F03F000008408946013C4E
:1045B00054EA0503DDE9000114BFD54CD54C0023B6
:1045C000CDE9043403460C46CDE9023400230293BE
:1045D000DDE9024522462B4601F0F8FC52465B46D7
:1045E00001F0A8FEDDE9002306460F464046494695
:1045F00001F0A0FE02460B463046394601F0E8FCC9
:10460000224606460F462B4650465946CDE90067DE
:1046100001F090FE0B4602468046894630463946F8
:1046200001F0D6FCBC4B994206460D460C4640F3C1
:104630000E8101F13F4303F5E003034340F0EF81B6
:104640009FA3D3E90023DDE9000101F0C1FC42464C
:1046500082468B464B463046294601F0B7FC02465F
:104660000B465046594602F0F5F8002840F0D78135
:104670002F463B154FF48012A3F2FE3342FA03F3A8
:104680002344C3F30A52A54EA2F2FF321641C3F3EC
:10469000130B0020C2F1140523EA06014BF4801B22
:1046A00002460B46002C4BFA05FB40464946B8BF74
:1046B000CBF1000B01F08AFC02460B46804689468E
:1046C000DDE9000101F084FC4FEA0B5A00247EA3CF
:1046D000D3E9002320460D4601F02CFE4246064653
:1046E0000F464B462046294601F070FC02460B4619
:1046F000DDE9000101F06AFC75A3D3E9002301F0B4
:1047000019FE75A3D3E90023804689462046294631
:1047100001F010FE02460B464046494601F058FCA7
:104720008046894602460B463046394601F050FC29
:1047300032463B4604460D4601F048FC02460B4615
:104740004046494601F042FC2246804689462B46B7
:104750002046294601F0EEFD61A3D3E90023064679
:104760000F4601F0E7FD60A3D3E9002301F02EFC22
:1047700032463B4601F0DEFD5DA3D3E9002301F0A4
:1047800027FC32463B4601F0D5FD5BA3D3E900236D
:1047900001F01CFC32463B4601F0CCFD58A3D3E9A6
:1047A000002301F015FC32463B4601F0C3FD0246F2
:1047B0000B462046294601F009FC06460F460246F4
:1047C0000B462046294601F0B5FD0022CDE9000147
:1047D0004FF080433046394601F0F8FB02460B4665
:1047E000DDE9000101F0D0FE424606460F464B4689
:1047F0002046294601F09EFD42464B4601F0E8FB6B
:1048000002460B463046394601F0E0FB22462B4675
:1048100001F0DCFB02460B4600203D4901F0D6FBCF
:104820008A44BAF5801FC0F236815146DDE904237F
:1048300001F080FD83461FE4F34635491CE44A46F7
:1048400048463B46394601F075FD834614E4344B37
:1048500021F000479F4240F30081324B0B44034359
:104860000CD142464B4601F0B1FB02460B46DDE956
:10487000000101F0DBFF00283FF4FBAE22A3D3E9E7
:104880000023DDE9040101F055FD1FA3D3E9002356
:1048900001F050FD8346FFF7EFBBBAF1000FBFF602
:1048A000B5ACDDE900349B4604F10041FFF7E4BB01
:1048B00002460B460020164901F066FE48E400BFA0
:1048C000FE822B654715973C00000000432EE63F13
:1048D000EF39FAFE422EE63F396CA80C615C20BE2F
:1048E000D0A4BE726937663EF16BD2C541BDBB3EF6
:1048F0002CDE25AF6A56113F93BDBE166CC1663FD4
:104900003E5555555555C53F59F3F8C21F6EA50183
:104910000000F03F0000F0BFFFFF8F40FFFF0F00DF
:10492000FFCB904000346F3F6F4B9E427FF76BACE4
:104930006E4B9E423FF7F6AB00226C4B01F046FBFC
:104940005BA3D3E9002306460F4601F0F3FC5AA30C
:10495000D3E90023804689463046394601F0EAFC17
:10496000002282468B46624B3046394601F0E2FC1B
:1049700002460B4652A1D1E9000101F027FB324665
:104980003B4601F0D7FC02460B460020594901F096
:104990001DFB3246CDE902013B463046394601F067
:1049A000C9FC02460B46DDE9020101F0C3FC46A347
:1049B000D3E9002301F0BEFC02460B46504659469F
:1049C00001F004FB02460B4606460F4640464946A8
:1049D00001F0FEFA42464B46002082468B4601F02B
:1049E000F5FA02460B463046394601F0EFFA8046AA
:1049F0008946DCE500220023CDE90823CDE90E231A
:104A00003A4B00220027CDE9062346E44A463B46BE
:104A10000020364901F0B8FD8346FFF72DBB2CA3DB
:104A2000D3E90023DDE9040101F084FC28A3D3E9E4
:104A3000002301F07FFC8346FFF71EBBBEF1000F91
:104A40007FF457ABC3F1140348FA03F202FA03F3FD
:104A5000984524D07446FFF729BB264B9F423FF769
:104A600008AEDDE902349A469B462FE602460B4625
:104A7000FFF7C1BB18A3D3E90023CDE9082318A38E
:104A8000D3E90023CDE90E231B4B00224FF48027EE
:104A9000CDE9062301E45A4601F00EFAC6E602F01B
:104AA0000102C2F10204FFF701BB00BFAFF30080B7
:104AB000000000604715F73F44DF5DF80BAE543E41
:104AC000555555555555D53FFE822B654715F73F32
:104AD0009C7500883CE4377E0000004003B8E23F4C
:104AE00006D0CF43EBFD4C3EFEFFEF3F0000F03F12
:104AF0000000D03F0000E03F0000F83FFFFFFFFF55
:104B00002DE9F04F944E21F00047B74291B040F3A9
:104B100082809246914A97420C4626DC002984A363
:104B2000D3E9002340F3A88101F050FA8C4B9F4257
:104B300004460D4600F084807FA3D3E9002301F0F2
:104B400045FA02460B46CAE900232046294601F0F1
:104B50003DFA79A3D3E9002301F038FA0125CAE927
:104B60000201284611B0BDE8F08F7E4A974240F31B
:104B700084807D4A974259DC3D15A5F21645A7EB86
:104B8000055319461F46064601F084FE01F06CFBF2
:104B90008046894602460B4630463946CDE90A89A9
:104BA00001F014FA0022714B01F0C4FB89468046E3
:104BB00001F070FE01F058FB02460B4606460F4618
:104BC00040464946CDE90C6701F000FA0022674BE8
:104BD00001F0B0FB00220023CDE90E0101F012FE2E
:104BE000002800F07581002330463946002201F08C
:104BF00009FE002814BF012302235D4A019202210D
:104C000000912A4651460AA800F082FB002CC0F20F
:104C10005181054606E0C2E9000100250024C2E9F1
:104C200002450025284611B0BDE8F08F02460B462C
:104C300001F0CCF90025CAE90201CAE90001F1E757
:104C40003FA3D3E9002301F0C1F93FA3D3E9002337
:104C50000D46044601F0BAF902460B46CAE90023A4
:104C60002946204601F0B2F937A3D3E9002301F029
:104C7000ADF90125CAE90201D4E700F0F7FF34A33A
:104C8000D3E900238046894601F054FB0022394BCA
:104C900001F09EF901F0FEFD054601F0E5FA24A3BE
:104CA000D3E90023CDE9040101F044FB02460B46A1
:104CB0004046494601F08AF91FA3D3E90023804604
:104CC0008946DDE9040101F035FB1F2DCDE9020124
:104CD00054DC294B6A1E53F822309F424ED00246C4
:104CE0000B464046494601F071F902460B46CAE9B7
:104CF000002383460E465A4633464046494601F055
:104D000065F9DDE9022301F061F9002C02460B464A
:104D1000CAE9022386DA5B4606F1004601F100414A
:104D20008AE84800CAF80C10CAF808006D4279E712
:104D300000004054FB21F93F3163621A61B4D03D59
:104D40000000601A61B4D03D7370032E8A19A33B32
:104D500083C8C96D305FE43FFB21E93F7BD9024046
:104D6000FB21F93FFB213941FFFFEF7F000070413C
:104D7000C07C00000000E03F407C0000DDE9022331
:104D80004046494601F022F93A15C1F30A53D31AB5
:104D9000102B83460E460992CAE90001ABDD5EA3E3
:104DA000D3E90023DDE9040101F0C4FA06460F4609
:104DB00002460B464046494601F008F9CDE9060196
:104DC00002460B464046494601F000F932463B4652
:104DD00001F0FCF852A3D3E9002306460F46DDE9B3
:104DE000040101F0A7FA32463B4601F0EFF8DDE995
:104DF0000689CDE9020102460B464046494601F0CC
:104E0000E5F80B46C1F30A570E460999CF1B024637
:104E1000312F8346CAE900237ADD43A3D3E9002377
:104E2000DDE9040101F086FA06460F4602460B460C
:104E300040464946CDE9068901F0C8F802460B46CE
:104E400080468946DDE9060101F0C0F832463B465E
:104E500001F0BCF836A3D3E9002306460F46DDE98E
:104E6000040101F067FA32463B4601F0AFF8024612
:104E70000B46CDE9022334E701F0AAF8304B9F42FC
:104E800004460D4626D02CA3D3E9002301F0A0F858
:104E900002460B46CAE900232946204601F096F84F
:104EA00025A3D3E9002301F093F84FF0FF35CAE9B9
:104EB0000201B7E6DAF80420DAF80C3002F1004219
:104EC00003F100434542CAF80420CAF80C30A9E6B1
:104ED000032392E610A3D3E9002301F079F810A38D
:104EE000D3E900230D46044601F072F802460B4652
:104EF000CAE900232946204601F068F808A3D3E94F
:104F0000002301F065F84FF0FF35CAE9020189E698
:104F1000DDE90689EFE600BF0000601A61B4D03D0C
:104F20007370032E8A19A33B0000002E8A19A33B3D
:104F3000C14920259A837B393163621A61B4D03D1F
:104F4000FB21F93F2DE9F8435D4EB6460E4076450C
:104F50000C46054600F0958000290B46024673DD9D
:104F60000F157ED0A7F2FF37C3F31303F80743F4FE
:104F7000801364D403EBD27100260B447F105200DF
:104F8000B64616204FF400110EEB01049C424FEA86
:104F9000D2754FEA420203DC1B1B04EB010E0E44E8
:104FA000013805EB43034FEA5101EDD1844620243B
:104FB0004FF0004109E020D003EBD275013C4FEAED
:104FC00051012B444FEA420220D09E4501EB0C05D3
:104FD000F1DA002D05EB010C09DBF0469542CEEB32
:104FE000030300D9013B521B0844C646E4E7BCF169
:104FF000000FF2DB0EF10108F0E7954217D8002D03
:1050000005EB010C47DB98460023ECE7134310D176
:105010004008731003F17F5303F50013F20703EB0D
:10502000075948BF40F000404946BDE8F883734641
:10503000C2E7411C33D000F001031844E8E75B00ED
:1050400003EBD273520095E721F000460643ECD003
:1050500069BB0F46D30A153F5205002BFAD0DD027B
:1050600020D4002100E001465B00DC0201F10100D8
:10507000F9D5C0F1200422FA04F423437F1A8240B8
:1050800070E702460B4601F055F92A46234600F028
:105090009FFFBDE8F883BCF1000FABDAB3E7013640
:1050A0002046B6E720244FF0FF310020E3E7024618
:1050B0000B4600F08BFF02460B4601F065FAB4E7A1
:1050C0000000F07FFFFFFFFF2DE9F04F21F00046C9
:1050D000B6F1795F85B00C4692469B4605466BDA81
:1050E00001F0D8FB002800F0E8802A462346284635
:1050F000214601F01FF974A3D3E9002380468946B5
:1051000001F018F972A3D3E9002300F061FF4246D1
:105110004B4601F00FF970A3D3E9002300F056FFCE
:1051200042464B4601F006F96DA3D3E9002300F097
:105130004FFF42464B4601F0FDF86BA3D3E9002335
:1051400000F044FF42464B4601F0F4F868A3D3E96F
:10515000002300F03DFF42464B4601F0EBF8CDE95D
:1051600000010022644B4046494601F0E3F8DDE9C6
:10517000002306460F464046494601F0DBF85246FA
:10518000804689465B462846214601F0D3F8024610
:105190000B464046494600F019FF02460B46304692
:1051A000394600F013FF02460B460020534900F039
:1051B0000DFF05B0BDE8F08F02460B4601F0BAF8CE
:1051C00041A3D3E900238046894601F0B3F840A308
:1051D000D3E9002300F0FCFE42464B4601F0AAF85A
:1051E0003DA3D3E9002300F0F1FE42464B4601F017
:1051F000A1F83BA3D3E9002300F0EAFE42464B4668
:1052000001F098F838A3D3E9002300F0DFFE42460E
:105210004B4601F08FF836A3D3E9002300F0D8FE07
:105220004B46424601F086F8354B9E42CDE90001DF
:1052300097DD344B9E424FF0000238DCA6F5001398
:1052400000202E4916461F4600F0C0FECDE902019F
:105250000022294B4046494601F06CF832463B4655
:1052600000F0B4FEDDE9002306460F4640464946FD
:1052700001F060F85246804689465B462846214642
:1052800001F058F802460B464046494600F09EFEA3
:1052900002460B463046394600F098FE02460B4661
:1052A000DDE9020100F092FE05B0BDE8F08F164B7B
:1052B000164FCDE902230026CAE71049002005B0A9
:1052C000BDE8F08FAFF30080D43888BEE9FAA8BDFE
:1052D000C4B1B4BD9EEE213EAD529C804F7E923E45
:1052E0009015CB19A001FA3E7751C1166CC1563FFB
:1052F0004C5555555555A53F0000E03F0000F03F87
:105300003233D33F0000E93F0000E73F0000D23FC7
:105310002DE9F04FADF51D7D784CA69E784D54F8E3
:10532000264009942646D41E85FB0475E417C4EB79
:10533000A50424EAE4741D460B93631CA3EB8303CA
:10534000013D02EBC30308932B460D940295651BA8
:10535000F41804900A9116D42C44013422AEA79F6D
:1053600008E057F8250000F07FFF0135A542E6E987
:10537000020108D0002DF4DA013500200021A542F9
:10538000E6E90201F6D1099B002B2FDB099BDDF832
:10539000089074AA02EBC30B0DF5E47A029B002B74
:1053A000C0F295810B9BC3EB090824AB03EBC80843
:1053B000049BA3F1080524AB03EBC90400260027D6
:1053C000F5E9022374E8020100F0B4FF02460B463F
:1053D0003046394600F0FCFD444506460F46EFD105
:1053E000EAE90267DA4509F10109D7D1099D05F11A
:1053F0008043023B9B001A1D10A90A440B440F92E4
:105400000E939CAB03EBC503002D53E928672BDDFE
:105410009CAB03EBC504A83C0DF13C0A0DF5E47B05
:105420000022384B3046394600F084FF01F032FA52
:1054300000F01AFF0022344B8046894600F07AFFC4
:1054400002460B463046394600F0C0FD01F022FA14
:1054500074E802234AF8040F4946404600F0B8FDBC
:105460005C4506460F46DBD1089C3046394622464D
:1054700000F022FD00224FF07F5306460F4600F059
:1054800059FF00F0FDFB0022204B00F053FF0246C5
:105490000B463046394600F099FD0F46064601F0AE
:1054A000F9F9814600F0E0FE02460B4630463946E7
:1054B00000F08CFD002C06460F4640F3EF80691E7D
:1054C00010AAC4F1180352F8212042FA03F000FA9E
:1054D00003F3D31A10AAC4F1170842F8213081440B
:1054E00043FA08F8B8F1000F3DDD002D09F101097C
:1054F00040F3D482002214460FA911E0C87D0000B9
:10550000ABAAAA2A0000703E0000704100002040B3
:10551000C3F180700BB108600124013295420DDDAA
:1055200051F8043F002CF3D0C3F1FF13013203F50F
:105530007F4395420B604FF00104F1DC089B002B88
:105540000DDD012B00F0B280022B08D16A1E10ABDA
:1055500010A953F82230C3F3150341F82230B8F1F3
:10556000020F00F08280002200233046394601F00D
:1055700049F9002800F05C82099B05F1FF3B5B457F
:1055800010DC05F1804310AA013B0F9802EB830366
:10559000002253F80419834242EA0102F9D1002A99
:1055A00040F0B280099B10AA013B52F82330002B37
:1055B00040F072820E9A012352F804190133002937
:1055C000FAD0E9186A1C8A420C9149DC0D990B98B3
:1055D0005118DB0001F180410593A79B0544013977
:1055E000E80003EB810A24ABD20003EB000B74ABA1
:1055F00013440193A2F10803069007934FF00009AA
:105600005AF8040F00F030FE029B002BEBE8020179
:1056100028DB069B03EB0904079B09EB030824AB7B
:105620001C449844049B0026A3F108050027F5E9D3
:10563000022374E8020100F07DFE02460B4630466C
:10564000394600F0C5FC444506460F46EFD1019BA4
:10565000E3E802670193059B09F108099945CFD159
:105660000C9DCEE600260027F1E732463B4600209F
:10567000AF4900F0ABFC06460F46002C3FF473AF79
:10568000089AAB49002000F017FC02460B46304652
:10569000394600F09BFC06460F4664E710D16B1EAE
:1056A00010AA52F823304FEAE3581BE76A1E10ABEA
:1056B00010A953F82230C3F3160341F822304EE705
:1056C00000229C4B01F0BCF858B980464BE70026FD
:1056D0000027EAE90267DA4509F101097FF45EAEC5
:1056E00084E6002D09F10109C8BF4FF002083FF719
:1056F00001AF32463B4600208D4900F067FC4FF079
:10570000020806460F462EE710AB089A53F82B30D6
:10571000CDF81490183ACDF8048008926BB90BF1CB
:105720008043013B10A901EB830353F804190BF1EB
:10573000FF3B183A0029F8D00892089A7C490020CB
:1057400000F0BAFBBBF1000F04460D46C0F2B68173
:105750004FEACB030DF5E87810AA02EB8B0608EBB5
:1057600003090493043609F1080756F8040D00F004
:105770007BFD22462B4600F0DDFD002267E9020199
:105780006D4B2046294600F0D5FDB84504460D4630
:10579000EBD10DF5987A4B46CDF808A0DDF824A0A2
:1057A000CDF818B04FF000099B46BAF1000FC0F2D7
:1057B0002881DFF888815D465BA3D3E900230026BA
:1057C0000027002403E0A14510DBF8E90223F5E8F7
:1057D000020100F0AFFD02460B463046394600F0AC
:1057E000F7FB0134A24506460F46ECDA029B03EBB9
:1057F000C903ABF1080BC3E9006772AB5B4509F164
:105800000109D2D1A69BDDF818B0DDF808A0032B62
:1058100000F28380DFE813F0D300940094000400CA
:10582000BBF1000F40F35481049BCDF808B00AEBA4
:105830000308D8E90067D34658E9029A32463B4646
:105840004846514600F0C4FB04460D4602460B464E
:105850004846514600F0BAFB32463B4600F0B8FBE2
:10586000C8E9000168E90245C34526462F46E3D151
:10587000DA46DDF808B0BBF1010F40F32981049B43
:105880005344D3E90067984699460DF59C7B59E946
:1058900002343046CDE902341A463946234600F038
:1058A00097FB04460D4602460B46DDE9020100F077
:1058B0008DFB32463B4600F08BFBC9E9000169E9EC
:1058C0000245CB4526462F46E1D1002308F10808C2
:1058D0001D4650AC1846294678E9022300F078FBB3
:1058E000444503460D46F5D1019A002A00F0D880C0
:1058F0000A9FDAF80440DAF80C20DAF80010DAF837
:1059000008003B6105F1004504F1004402F1004349
:105910007D617C60FB603960B860059B03F0070027
:105920000DF51D7DBDE8F08F00000040FB21F93F23
:105930000000F03F0000E03F0000703ED87D000016
:10594000049C00260834544433463046194674E912
:10595000022300F03DFB544506460B46F5D1019A63
:1059600030461946002A4FD00A9803F100443246C7
:1059700044600660DAE9000100F028FBBBF1000F8B
:1059800002460B460DDD012410461946FAE90223B2
:1059900000F01EFB0134A34502460B46F4DA0199E0
:1059A00009B103F1004319460A9B1046C3E90201FD
:1059B000059B03F007000DF51D7DBDE8F08F049BEE
:1059C000002208339A441346104619467AE9022306
:1059D00000F0FEFA0BF1FF3BBBF1FF3F02460B4626
:1059E000F2D1019909B103F1004319460A9B10460F
:1059F000C3E90001059B03F007000DF51D7DBDE81F
:105A0000F08F00260027F1E60A9B3246C3E9000129
:105A10000B46DAE9000100F0D9FABBF1000F0246AB
:105A20000B46B0DC19460A9B1046C3E90201BFE7EA
:105A3000089BCDF814905A4230463946CDF8048080
:105A400000F03AFA00222C4B06460F4600F0F8FE12
:105A5000002840D00022294B3046394600F06AFC2D
:105A600000F018FF044600F0FFFB0022224B00F07C
:105A700061FC0B4602463946304600F0A7FA00F0BA
:105A800009FF089B183305F1010B089310AB43F88D
:105A9000250043F82B4050E6012392E500244DE514
:105AA00018462946DAE90023DAE902450A9FC7E9E0
:105AB0000401C7E90023C7E902452EE7A69B032B93
:105AC0003FF62BAFDFE803F0151010020DF5987AC2
:105AD00000231D4608E73046394600F0DBFE10ABD8
